:100000000C9446000C9465000C9465000C946500FB
:100010000C9465000C9465000C9465000C946500CC
:100020000C9465000C9465000C9465000C946500BC
:100030000C9465000C9465000C94F6050C94650016
:100040000C9465000C9465000C9465000C9465009C
:100050000C9465000C9465000C9465000C9465008C
:100060000C9465000C9465000C9465000C9465007C
:100070000C9465000C9465000C9465000C9465006C
:100080000C9465000C9465000C94650011241FBE4F
:10009000CFEFD0E1DEBFCDBF11E0A0E0B1E0E4E8FA
:1000A000F4E100E00BBF02C007900D92AE32B10741
:1000B000D9F711E0AEE2B1E001C01D92AD33B10756
:1000C000E1F70E94E4050C94400A0C9400008BB305
:1000D000806F8BBB8AB38F708ABBDB9ADB9A89B344
:1000E000DB98DB9ADB9A99B3DB9892959F70807FBF
:1000F000892B08959BB39F70282F207F292B2BBB22
:10010000DB9ADB988295807F982B9BBBDB9ADB98F0
:1001100008958BBBDB9ADB9808950F931F93DF93B1
:10012000CF930F92CDB7DEB78E010F5F1F4FD998D7
:10013000DA9A0E9467008983F80180818823BCF3E2
:10014000DA988FEF8ABB0F90CF91DF911F910F91BB
:1001500008958FEF8ABB8ABBD998DA98DB98DB9A2F
:10016000DD9ADB980E948D0088E20E947A000E944E
:100170008D00D9988EE00E947A000E948D00D99857
:1001800086E00E947A000E948D000895D99882E04E
:100190000E947A000E948D0008958130A0F0833083
:1001A00018F0853080F408C0982F9295990F990F18
:1001B000907C960F915C07C0982F9295990F990F9C
:1001C000907C960F9D52D998892F0E947A000E94A8
:1001D0008D000895D99881E00E947A000E948D00D8
:1001E0000895D99A0E947A000E948D0008951F9365
:1001F000CF93DF93EC018881882351F010E00E94B7
:10020000F1001F5FFE01E10FF11D80818823B9F726
:10021000DF91CF911F91089584E08093710080E277
:100220008093700084E880937400089594EA90931A
:100230007400E4E7F0E090819923ECF7909171006D
:10024000987F983019F080917100089590ED909307
:10025000730094E890937400E4E7F0E090819923B0
:10026000ECF790917100987F983119F080917100AE
:1002700008958093730084E880937400E4E7F0E0CD
:1002800080818823ECF780917100887F883219F093
:1002900080917100089584E98093740080E008954E
:1002A000CF93DF9394EA90937400E4E7F0E09081B9
:1002B0009923ECF790917100987F983019F0809114
:1002C000710049C090ED9093730094E8909374008E
:1002D000E4E7F0E090819923ECF790917100987F2A
:1002E000983119F08091710036C08093730084E8D2
:1002F00080937400E4E7F0E080818823ECF780913C
:100300007100887F883219F4442321F420C0809141
:10031000710021C0562FA62FB72F83E790E0E4E7A6
:10032000F0E034E861E770E02D91EC012883308340
:1003300020812223ECF7EB012881287F283219F055
:100340008091710008C02A2F251B241768F384E9C7
:100350008093740080E0DF91CF910895FF920F9316
:100360001F93CF93DF93162F24EA20937400E4E7C2
:10037000F0E0A1E7B0E020812223ECF72C91287F68
:100380002830C9F721ED2093730024E820937400EE
:10039000E4E7F0E0A1E7B0E020812223ECF72C9124
:1003A000287F2034C9F7412F50E0415050401416A7
:1003B0001506FCF400E0E4E7F0E00F2EF4ECFF2E6D
:1003C000F02DA1E7B0E063E770E0F0822081222306
:1003D000ECF72C91287F2035C9F7EB012881EC013F
:1003E000C00FD11D28830F5F202F30E02417350761
:1003F00064F324E820937400E4E7F0E0A1E7B0E0C0
:1004000020812223ECF72C91287F2835C9F72091F1
:100410007300810F911DFC013197208384E9809343
:10042000740080E0DF91CF911F910F91FF900895AC
:10043000D898D09A80EC93E00197F1F7D09880EAB1
:100440008A95F1F789B3E8E4F3E03197F1F7817029
:100450000895D898D09A93E09A95F1F78111D098A1
:1004600080EA8A95F1F7D0980895D898D09A83E0D9
:100470008A95F1F7D09885E28A95F1F799B388E7E4
:100480008A95F1F781E090FF80E008950F931F9324
:1004900018E000E00E943502879588278795069529
:1004A000082B1150B9F7802F1F910F9108950F93CA
:1004B0001F93082F18E0802F81700E942902069553
:1004C0001150C9F71F910F9108950F931F930E9428
:1004D00018028CEC0E94570284E40E9457020E948A
:1004E00035028823E1F30E9418028CEC0E94570227
:1004F0008EEB0E9457020E944602182F0E9446026D
:10050000082F0E941802612F70E06F7070708827AA
:1005100077FD8095982F0E94500620E030E040E85B
:100520005DE30E94B40620E030E048EC52E40E9413
:10053000B4060E94220660932F010295007F129557
:100540001F70102B109330011F910F910895FF928F
:100550000F931F93F82E062F142F0E9418028EE47B
:100560000E9457028F2D0E945702802F0E9457022F
:10057000812F0E9457021F910F91FF900895982F8D
:1005800092959F70990F292F220F220F920F8F7033
:10059000890F08956AE00E943F078295807F890F46
:1005A0000895CF93DF93809131018F770E94BF022E
:1005B00080932501809132010E94BF028093260121
:1005C00080912E01882341F0809133018F710E9428
:1005D000BF028093270107C0809133018F730E946F
:1005E000BF0280932701809134010E94BF02809353
:1005F0002801809135010E94BF02809329018091DA
:1006000036010E94BF0280932A01809137010E9427
:10061000BF0280932B010E94EA002091270100D0A5
:1006200000D000D0EDB7FEB7319688E391E0ADB7CA
:10063000BEB712969C938E93119780E091E09383BE
:100640008283248315820E944B072DB73EB72A5F11
:100650003F4F0FB6F8943EBF0FBE2DBF81E061E063
:100660000E94CD00809127018A3018F480E20E9418
:10067000F100C8E3D1E0CE010E94F70081E063E021
:100680000E94CD008AE30E94F1002091260100D053
:1006900000D000D0EDB7FEB73196ADB7BEB7129619
:1006A000DC93CE93119780E091E09383828324833F
:1006B00015820E944B072DB73EB72A5F3F4F0FB6FA
:1006C000F8943EBF0FBE2DBF81E064E00E94CD00D4
:1006D000809126018A3018F480E30E94F100C8E37B
:1006E000D1E0CE010E94F70081E066E00E94CD00DB
:1006F0008AE30E94F1002091250100D000D000D0B3
:10070000EDB7FEB73196ADB7BEB71296DC93CE9378
:10071000119780E091E093838283248315820E9465
:100720004B072DB73EB72A5F3F4F0FB6F8943EBF39
:100730000FBE2DBF81E067E00E94CD0080912501B2
:100740008A3018F480E30E94F10088E391E00E946F
:10075000F70080912E01882379F081E061E00E940A
:10076000CD008091330185FF04C080E50E94F10037
:1007700003C081E40E94F10082E061E00E94CD00AC
:10078000809128018430F9F0853038F4823089F086
:100790008330A0F4813051F507C08630F1F0863007
:1007A000B8F0873019F51EC083E091E00E94F70091
:1007B0001DC087E091E00E94F70018C08BE091E037
:1007C0000E94F70013C08FE091E00E94F7000EC076
:1007D00083E191E00E94F70009C087E191E00E9467
:1007E000F70004C08BE191E00E94F70020912901FD
:1007F00000D000D000D0EDB7FEB7319688E391E08D
:10080000ADB7BEB712969C938E93119780E091E09E
:1008100093838283248315820E944B072DB73EB7B2
:100820002A5F3F4F0FB6F8943EBF0FBE2DBF82E048
:1008300065E00E94CD00809129018A3018F480E2A1
:100840000E94F100C8E3D1E0CE010E94F70082E0EF
:1008500067E00E94CD008FE20E94F10020912A0102
:1008600000D000D000D0EDB7FEB73196ADB7BEB71F
:100870001296DC93CE93119780E091E0938382836C
:10088000248315820E944B0780912A012DB73EB721
:100890002A5F3F4F0FB6F8943EBF0FBE2DBF8A3080
:1008A00018F480E30E94F100C8E3D1E0CE010E9479
:1008B000F70082E06AE00E94CD008FE20E94F10022
:1008C00082E30E94F10080E30E94F10020912B015D
:1008D00000D000D000D0EDB7FEB73196ADB7BEB7AF
:1008E0001296DC93CE93119780E091E093838283FC
:1008F000248315820E944B072DB73EB72A5F3F4FD6
:100900000FB6F8943EBF0FBE2DBF82E06DE00E948F
:10091000CD0080912B018A3018F480E30E94F10011
:1009200088E391E00E94F700DF91CF910895E1996B
:10093000FECF80E090E00E948B09E9EFF0E0319774
:10094000F1F700C00000803F09F45DC0E199FECFDF
:1009500080E090E060EF0E94930989EF90E00197BA
:10096000F1F700C00000809125010E94CA02809327
:100970003101809126010E94CA0280933201809148
:100980002E018823A1F0809127010E94CA02909134
:100990002E0120912C012295220F207E9295990FF5
:1009A000990F907C922B892B8093330106C0809104
:1009B00027010E94CA0280933301809128010E947E
:1009C000CA0280933401809129010E94CA02809357
:1009D000350180912A010E94CA02809336018091DC
:1009E0002B010E94CA02809337010E940C0180E013
:1009F00061E371E047E00E945001E9EFF0E03197D8
:100A0000F1F700C00000089580E00E94160189EF10
:100A100090E00197F1F700C0000081E391E061E010
:100A20000E94AE01809131010E94BF029091250188
:100A3000891709F44BC0809131018F770E94BF0262
:100A4000809325012091250100D000D000D0EDB782
:100A5000FEB7319688E391E0ADB7BEB712969C938E
:100A60008E93119780E091E0938382832483158293
:100A70000E944B078DB79EB706960FB6F8949EBF9F
:100A80000FBE8DBF81E067E00E94CD0080912501FF
:100A90008A3018F480E30E94F10088E391E00E941C
:100AA000F70080912501882379F40E941601A9EFAF
:100AB000B0E01197F1F700C0000081E391E067E03A
:100AC0000E94AE010E94D1020E94960508950F93E4
:100AD0001F93182F843668F464E60E943F079A300B
:100AE000B0F0892F6AE00E943F07805D0E94F1000C
:100AF0000EC064E60E943F07092F805D0E94F1004E
:100B0000802F6AE00E943F07805D0E94F100812FE4
:100B100064E60E943F07892F6AE00E943F07892F01
:100B2000805D0E94F1001F910F9108951F9381E055
:100B30006AE00E94CD000E946502809130010E940F
:100B400067058FE191E00E94F70080912F011AE084
:100B5000612F0E943F07805D0E94F10080912F016C
:100B6000612F0E943F07892F805D0E94F1008FED69
:100B70000E94F10081E291E00E94F70083E291E09F
:100B80000E94F7001F9108950E94A9000E94EA00A8
:100B90008FEF84BB85BB17BA88BB11BA82BB0E949A
:100BA000E7050E94970480E00E94160189EF90E01B
:100BB0000197F1F700C0000081E391E067E00E9437
:100BC000AE010E94D10208950E94C405FFCF8EB5E8
:100BD000887F85608EBD1DBC1CBC87B7846087BFC5
:100BE0008BE791EE9DBD8CBD789408951F920F9276
:100BF0000FB60F920BB60F9211242F933F934F9382
:100C00005F936F937F938F939F93AF93BF93EF9374
:100C1000FF938BE791EE9DBD8CBD0E940405FF9173
:100C2000EF91BF91AF919F918F917F916F915F9164
:100C30004F913F912F910F900BBE0F900FBE0F90D1
:100C40001F90189570D088F09F5790F0B92F992772
:100C5000B751A0F0D1F0660F771F881F991F1AF0C7
:100C6000BA95C9F712C0B13081F077D0B1E00895DC
:100C700074C0672F782F8827B85F39F0B93FCCF35D
:100C8000869577956795B395D9F73EF490958095BD
:100C9000709561957F4F8F4F9F4F0895E89409C0DD
:100CA00097FB3EF490958095709561957F4F8F4F9F
:100CB0009F4F9923A9F0F92F96E9BB279395F695B5
:100CC000879577956795B795F111F8CFFAF4BB0F33
:100CD00011F460FF1BC06F5F7F4F8F4F9F4F16C097
:100CE000882311F096E911C0772321F09EE8872F21
:100CF000762F05C0662371F096E8862F70E060E0DD
:100D00002AF09A95660F771F881FDAF7880F969555
:100D1000879597F9089557FD9058440F551F59F03E
:100D20005F3F71F04795880F97FB991F61F09F3FD8
:100D300079F087950895121613061406551FF2CF01
:100D40004695F1DF08C0161617061806991FF1CF51
:100D500086957105610508940895E894BB27662778
:100D60007727CB0197F908950BD078C069D028F088
:100D70006ED018F0952309F05AC05FC01124EECF51
:100D8000CADFA0F3959FD1F3950F50E0551F629FE6
:100D9000F001729FBB27F00DB11D639FAA27F00DD4
:100DA000B11DAA1F649F6627B00DA11D661F829FFB
:100DB0002227B00DA11D621F739FB00DA11D621FE0
:100DC000839FA00D611D221F749F3327A00D611DFD
:100DD000231F849F600D211D822F762F6A2F1124DF
:100DE0009F5750408AF0E1F088234AF0EE0FFF1F32
:100DF000BB1F661F771F881F91505040A9F79E3F69
:100E0000510570F014C0AACF5F3FECF3983EDCF3BD
:100E1000869577956795B795F795E7959F5FC1F7A5
:100E2000FE2B880F911D9695879597F9089597F950
:100E30009F6780E870E060E008959FEF80EC089580
:100E400000240A94161617061806090608950024A9
:100E50000A9412161306140605060895092E039423
:100E6000000C11F4882352F0BB0F40F4BF2B11F497
:100E700060FF04C06F5F7F4F8F4F9F4F0895991B96
:100E800079E004C0991F961708F0961B881F7A9581
:100E9000C9F7809508950F931F93DF93CF93CDB734
:100EA000DEB72E970FB6F894DEBF0FBECDBF0D890B
:100EB0001E8986E08C831A8309838FEF9FE79E83C8
:100EC0008D839E01275E3F4FCE0101966F89788DFD
:100ED000A9010E947B07EF81F885E00FF11F1082C6
:100EE0002E960FB6F894DEBF0FBECDBFCF91DF9127
:100EF0001F910F9108952F923F924F925F926F92A0
:100F00007F928F929F92AF92BF92CF92DF92EF9299
:100F1000FF920F931F93DF93CF93CDB7DEB72C973C
:100F20000FB6F894DEBF0FBECDBF6C011B018A0166
:100F3000FC0117821682838181FFD1C12E010894A2
:100F4000411C511CF6019381F10193FD859193FFA2
:100F500081911F01882309F4BEC1853239F493FDC4
:100F6000859193FF81911F01853229F490E0B601AC
:100F70000E94B609E7CFEE24FF2420E02032B0F42F
:100F80008B3269F08C3228F4803251F0833271F464
:100F90000BC08D3239F0803349F421602CC02260BF
:100FA000246029C0286027C0206125C027FD2CC0EF
:100FB000382F30533A3098F426FF08C08E2D880F12
:100FC000E82EEE0CEE0CE80EE30E15C08F2D880F08
:100FD000F82EFF0CFF0CF80EF30E20620CC08E32C0
:100FE00021F426FD78C1206406C08C3611F42068F7
:100FF00002C0883649F4F10193FD859193FF8191F8
:101000001F01882309F0BACF982F9554933018F018
:101010009052933028F40C5F1F4FFFE3F9830DC00B
:10102000833631F0833771F0833509F060C022C018
:10103000F801808189830E5F1F4F420171E0A72E66
:10104000B12C16C062E0662E712C600E711EF80184
:101050008080918026FF03C06E2D70E002C06FEF8C
:101060007FEFC4012C870E94AB095C0183012C85B2
:101070002F7717C052E0652E712C600E711EF8019B
:101080008080918026FF03C06E2D70E002C06FEF5C
:101090007FEFC4012C870E94A0095C012C85206889
:1010A000830123FD20C008C080E290E0B6012C87B8
:1010B0000E94B609FA942C858F2D90E0A816B906E7
:1010C00098F311C0F40127FD859127FF81914F010D
:1010D00090E0B6012C870E94B6092C85F110FA9495
:1010E0000894A108B108A114B10461F7F1C08436D5
:1010F00011F0893649F527FF08C0F8016081718138
:10110000828193810C5F1F4F09C0F801608171815A
:10111000882777FD8095982F0E5F1F4F4FE6B42EDE
:10112000B22297FF09C090958095709561957F4F89
:101130008F4F9F4FF0E8BF2AA2012AE030E00E94C3
:10114000E209782E741845C0853731F43FEEB32E8E
:10115000B2222AE030E025C099EFB92EB2228F36B4
:10116000C1F0803720F4883509F0B5C00DC0803754
:1011700021F0883709F0AFC002C020E1B22AB4FEE6
:101180000BC084E0B82A08C0B4FE09C0E6E0BE2A5D
:1011900006C028E030E005C020E130E002C020E1D8
:1011A00032E0B7FE08C0F8016081718182819381CD
:1011B0000C5F1F4F07C0F8016081718180E090E0F3
:1011C0000E5F1F4FA2010E94E209782E7418FFE7FC
:1011D000BF22B6FE0BC02EEFB2227E1438F4B4FE4E
:1011E00007C0B2FC05C08FEEB82202C0A72C01C018
:1011F000AE2C8B2D90E0B4FE0DC0FE01E70DF11D6D
:101200002081203319F4E9EEBE2209C0A394B2FE76
:1012100006C004C086789070009709F0A3948B2CC8
:101220009924B3FC14C0B0FE0FC0AF1428F4E72C0F
:10123000EF0CEA18AF2C08C0E72C06C080E290E063
:10124000B6010E94B609A394AF14C0F304C0AF1452
:1012500010F4FA1801C0FF2484FE0FC080E390E070
:10126000B6010E94B60982FE1FC081FE03C088E558
:1012700090E010C088E790E00DC0C40186789070BF
:10128000009791F081FC02C080E201C08BE2B7FCC4
:101290008DE290E0B6010E94B60906C080E390E0BE
:1012A000B6010E94B609EA947E14C0F37A94F20162
:1012B000E70DF11D808190E0B6010E94B60977200C
:1012C000A9F706C080E290E0B6010E94B609FA9440
:1012D000FF20C1F737CEF6012681378102C02FEFFC
:1012E0003FEFC9012C960FB6F894DEBF0FBECDBFFD
:1012F000CF91DF911F910F91FF90EF90DF90CF90F2
:10130000BF90AF909F908F907F906F905F904F9025
:101310003F902F900895E199FECF9FBB8EBBE09A3E
:1013200099278DB30895262FE199FECF9FBB8EBBE1
:101330002DBB0FB6F894E29AE19A0FBE019608957C
:10134000FC010590615070400110D8F78095909590
:101350008E0F9F1F0895FC01615070400190011095
:10136000D8F7809590958E0F9F1F08950F931F9328
:10137000CF93DF938C01EB018B8181FF1BC082FF38
:101380000DC02E813F818C819D812817390764F41F
:10139000E881F9810193F983E88306C0E885F9853E
:1013A000802F0995009731F48E819F8101969F834C
:1013B0008E8302C00FEF1FEFC801DF91CF911F9105
:1013C0000F910895FA01AA27283051F1203181F1B7
:1013D000E8946F936E7F6E5F7F4F8F4F9F4FAF4F3D
:1013E000B1E03ED0B4E03CD0670F781F891F9A1F50
:1013F000A11D680F791F8A1F911DA11D6A0F711D04
:10140000811D911DA11D20D009F468943F912AE00F
:10141000269F11243019305D3193DEF6CF010895F7
:10142000462F4770405D4193B3E00FD0C9F7F6CF28
:10143000462F4F70405D4A3318F0495D31FD4052F0
:10144000419302D0A9F7EACFB4E0A6959795879586
:1014500077956795BA95C9F7009761057105089565
:101460009B01AC010A2E0694579547953795279511
:10147000BA95C9F7620F731F841F951FA01D0895A9
:04148000F894FFCF0E
:1014840025690053756E004D6F6E005475650057E5
:101494006564005468750046726900536174002ED7
:0E14A40000430020001E1014020F040D010072
:00000001FF
