:100000000C9446000C9465000C9465000C946500FB
:100010000C9465000C9465000C9465000C946500CC
:100020000C9465000C9465000C9465000C946500BC
:100030000C9465000C9465000C9465000C946500AC
:100040000C9465000C9465000C9465000C9465009C
:100050000C9465000C9465000C9465000C9465008C
:100060000C9465000C9465000C9465000C9465007C
:100070000C9465000C9465000C9465000C9465006C
:100080000C9465000C9465000C94650011241FBE4F
:10009000CFEFD0E1DEBFCDBF11E0A0E0B1E0E0EBFB
:1000A000F6E000E00BBF02C007900D92AA31B10745
:1000B000D9F711E0AAE1B1E001C01D92AC31B1075E
:1000C000E1F70E941C020C9456030C9400008BB3C1
:1000D000806F8BBB8AB38F708ABBDB9ADB9A89B344
:1000E000DB98DB9ADB9A99B3DB9892959F70807FBF
:1000F000892B08959BB39F70282F207F292B2BBB22
:10010000DB9ADB988295807F982B9BBBDB9ADB98F0
:1001100008958BBBDB9ADB9808950F931F93DF93B1
:10012000CF930F92CDB7DEB78E010F5F1F4FD998D7
:10013000DA9A0E9467008983F80180818823BCF3E2
:10014000DA988FEF8ABB0F90CF91DF911F910F91BB
:1001500008958FEF8ABB8ABBD998DA98DB98DB9A2F
:10016000DD9ADB980E948D0088E20E947A000E944E
:100170008D00D9988EE00E947A000E948D00D99857
:1001800086E00E947A000E948D000895D99882E04E
:100190000E947A000E948D0008958130A0F0833083
:1001A00018F0853080F408C0982F9295990F990F18
:1001B000907C960F915C07C0982F9295990F990F9C
:1001C000907C960F9D52D998892F0E947A000E94A8
:1001D0008D000895D99881E00E947A000E948D00D8
:1001E0000895D99A0E947A000E948D0008951F9365
:1001F000CF93DF93EC018881882351F010E00E94B7
:10020000F1001F5FFE01E10FF11D80818823B9F726
:10021000DF91CF911F910895C098B89A80EC93E038
:100220000197F1F7B89880EA8A95F1F786B3E8E488
:10023000F3E03197F1F781700895C098B89A93E090
:100240009A95F1F78111B89880EA8A95F1F7B898F4
:100250000895C098B89A83E08A95F1F7B89885E236
:100260008A95F1F796B388E78A95F1F781E090FFD8
:1002700080E008950F931F9318E000E00E94290189
:100280008795882787950695082B1150B9F7802FF9
:100290001F910F9108950F931F93082F18E0802F3F
:1002A00081700E941D0106951150C9F71F910F9191
:1002B00008950F931F930E940C018CEC0E944B0138
:1002C00084E40E944B010E9429018823E1F30E94EB
:1002D0000C018CEC0E944B018EEB0E944B010E94A2
:1002E0003A01182F0E943A01082F0E940C01612F39
:1002F00070E06F707070882777FD8095982F0E944E
:100300005B0220E030E040E85DE30E94BF0220E0B5
:1003100030E048EC52E40E94BF020E942D0260933C
:100320001A010295007F12951F70102B10931B016C
:100330001F910F910895FF920F931F93F82E062F90
:10034000142F0E940C018EE40E944B018F2D0E94FD
:100350004B01802F0E944B01812F0E944B011F9166
:100360000F91FF9008950F931F93182F843668F410
:1003700064E60E944A039A30B0F0892F6AE00E9436
:100380004A03805D0E94F1000EC064E60E944A03A9
:10039000092F805D0E94F100802F6AE00E944A03CD
:1003A000805D0E94F100812F64E60E944A03892F3C
:1003B0006AE00E944A03892F805D0E94F1001F912C
:1003C0000F9108951F9381E06AE00E94CD000E9482
:1003D000590180911B010E94B30180E091E00E94CD
:1003E000F70080911A011AE0612F0E944A03805D94
:1003F0000E94F10080911A01612F0E944A03892F07
:10040000805D0E94F1008FED0E94F10082E091E09A
:100410000E94F70084E091E00E94F7001F91089588
:100420000E94A9000E94EA008FEF84BB85BB17BA27
:1004300088BB11BA82BB08950E94100286E091E049
:100440000E94F70082E061E00E94CD0080E191E02F
:100450000E94F7000E94E201FDCF70D088F09F5704
:1004600090F0B92F9927B751A0F0D1F0660F771F00
:10047000881F991F1AF0BA95C9F712C0B13081F0E0
:1004800077D0B1E0089574C0672F782F8827B85FC0
:1004900039F0B93FCCF3869577956795B395D9F741
:1004A0003EF490958095709561957F4F8F4F9F4F4B
:1004B0000895E89409C097FB3EF490958095709557
:1004C00061957F4F8F4F9F4F9923A9F0F92F96E9A0
:1004D000BB279395F695879577956795B795F11115
:1004E000F8CFFAF4BB0F11F460FF1BC06F5F7F4FB2
:1004F0008F4F9F4F16C0882311F096E911C07723C4
:1005000021F09EE8872F762F05C0662371F096E8CC
:10051000862F70E060E02AF09A95660F771F881F9B
:10052000DAF7880F9695879597F9089557FD9058B3
:10053000440F551F59F05F3F71F04795880F97FBA7
:10054000991F61F09F3F79F0879508951216130661
:100550001406551FF2CF4695F1DF08C01616170690
:100560001806991FF1CF86957105610508940895C5
:10057000E894BB2766277727CB0197F908950BD01E
:1005800078C069D028F06ED018F0952309F05AC0D1
:100590005FC01124EECFCADFA0F3959FD1F3950F72
:1005A00050E0551F629FF001729FBB27F00DB11DF7
:1005B000639FAA27F00DB11DAA1F649F6627B00D87
:1005C000A11D661F829F2227B00DA11D621F739F70
:1005D000B00DA11D621F839FA00D611D221F749F7E
:1005E0003327A00D611D231F849F600D211D822FC5
:1005F000762F6A2F11249F5750408AF0E1F088230C
:100600004AF0EE0FFF1FBB1F661F771F881F915018
:100610005040A9F79E3F510570F014C0AACF5F3F2C
:10062000ECF3983EDCF3869577956795B795F7954B
:10063000E7959F5FC1F7FE2B880F911D96958795D3
:1006400097F9089597F99F6780E870E060E0089552
:100650009FEF80EC089500240A94161617061806DA
:100660000906089500240A941216130614060506B6
:100670000895092E0394000C11F4882352F0BB0F47
:1006800040F4BF2B11F460FF04C06F5F7F4F8F4FAA
:100690009F4F0895991B79E004C0991F961708F0A1
:1006A000961B881F7A95C9F780950895F894FFCF17
:1006B0002E004300200054455354204C4344200056
:0A06C00041544D45474131323800E6
:00000001FF
