:100000000C94C0090C94DD090C94DD090C94621564
:100010000C94DD090C94DD090C94DD090C94DD09C8
:100020000C94DD090C94C0290C94DD090C94DD09B5
:100030000C94DD090C94762A0C94DD090C944A2A60
:100040000C94DD090C94DD090C94DD090C94DD0998
:100050000C94DD090A0D00444843503A2053656E64
:1000600064696E672052656C6561736520746F20EA
:10007000004C65617365546D203A2025640A0D00BB
:10008000444843503A20476F742072657175657318
:10009000742041434B2C2062696E6420636F6D7045
:1000A0006C6574650D0A000A0D00444843503A20FF
:1000B000476F74206F666665722066726F6D20737D
:1000C00065727665722000444843503A2052656359
:1000D0006569766564206D736774797065203D206D
:1000E00025640D0A00444843503A2053656E646904
:1000F0006E67207265717565737420696E20726514
:1001000073706F6E736520746F206F666665720D15
:100110000A00444843503A2053656E64696E672074
:1001200051756572790D0A000A0D00436C487741DC
:100130006464723A20000A0D004777497041646494
:10014000723A20000A0D0053764970416464723A95
:1001500020000A0D0059724970416464723A20000F
:100160000A0D00436C4970416464723A20000A0D24
:100170000058494420202020203A203078000A0DE1
:1001800000554E4B4E4F574E00424F4F5452455024
:100190004C5900424F4F5452455155455354004F0E
:1001A000702020202020203A200044484350205036
:1001B00061636B65743A0D0A000400050006FF07D1
:1001C00005080009060AFF0B1FC100C00DC232CA94
:1001D000EECB05C412C612C70CE430E546E246E396
:1001E00049E043E1453C21444F4354595045206880
:1001F000746D6C205055424C494320222D2F2F57AF
:1002000033432F2F445444205848544D4C20312E12
:1002100030205472616E736974696F6E616C2F2F38
:10022000454E222022687474703A2F2F7777772EEC
:1002300077332E6F72672F54522F7868746D6C313C
:100240002F4454442F7868746D6C312D7472616E34
:10025000736974696F6E616C2E647464223E3C68CD
:10026000746D6C20786D6C6E733D22687474703A96
:100270002F2F7777772E77332E6F72672F3139399B
:10028000392F7868746D6C22206469723D226C7419
:100290007222206C616E673D22656E223E3C68656D
:1002A00061643E3C6D65746120687474702D657185
:1002B0007569763D22436F6E74656E742D54797046
:1002C000652220636F6E74656E743D227465787468
:1002D0002F68746D6C3B20636861727365743D5563
:1002E00054462D38223E3C7469746C653E4156522A
:1002F00020776562207365727665723C2F7469742D
:100300006C653E3C7374796C6520747970653D2230
:10031000746578742F637373223E202E6F6E207B7A
:1003200020626F726465723A313B20776964746849
:100330003A20323070783B206865696768743A20EB
:10034000323070783B206261636B67726F756E64E8
:100350003A20626C75653B20746578742D616C6918
:10036000676E3A2063656E7465723B2070616464E9
:10037000696E673A203070783B20636F6C6F723A19
:1003800020236666663B202D6D6F7A2D626F726446
:1003900065722D7261646975733A20313070783BF3
:1003A000202D7765626B69742D626F726465722DA2
:1003B0007261646975733A20313070783B20626FE6
:1003C000726465722D7261646975733A20313070A0
:1003D000783B7D2E6F6666207B20626F726465724B
:1003E0003A313B2077696474683A20323070783B48
:1003F000206865696768743A20323070783B206203
:1004000061636B67726F756E643A207768697465B3
:100410003B20746578742D616C69676E3A20636562
:100420006E7465723B2070616464696E673A203057
:1004300070783B20636F6C6F723A20236666663B70
:10044000202D6D6F7A2D626F726465722D726164FA
:100450006975733A20313070783B202D7765626B77
:1004600069742D626F726465722D7261646975734F
:100470003A20313070783B20626F726465722D7261
:1004800061646975733A20313070783B20626F7215
:100490006465723A2031707820736F6C6964202330
:1004A0006134613461343B7D3C2F7374796C653EFB
:1004B0003C2F686561643E3C626F647920626763CB
:1004C0006F6C6F723D22236430643064302220618F
:1004D0006C69676E3D2263656E7465722220737469
:1004E000796C653D2270616464696E673A203135CC
:1004F00070782030707820307078203070783B220F
:100500003E3C7461626C65206267636F6C6F723D24
:100510002223324634463446222069643D22726FDB
:100520006F742220626F726465723D2231222061F5
:100530006C69676E3D2263656E7465722220207758
:10054000696474683D223833387078223C74626F75
:1005500064793E3C74723E3C746420636F6C7370CB
:10056000616E3D223422206865696768743D2231DE
:100570003235223E3C623E3C64697620616C69679C
:100580006E3D2263656E74657222207374796C65AA
:100590003D22666F6E742D73697A653A32347074D9
:1005A0003B20636F6C6F723A2346464646464622AE
:1005B0003E52454D4F544520434F4E54524F4C20D0
:1005C000415652205745425345525645523C2F649E
:1005D00069763E3C2F623E3C2F74643E3C2F747221
:1005E0003E3C747220616C69676E3D226C65667476
:1005F000223E3C7464206267636F6C6F723D2223FD
:100600006430643064302220636F6C7370616E3DBF
:10061000223422206865696768743D2232302220C6
:1006200076616C69676E3D22746F70222077696411
:1006300074683D22363934223E3C623E3C64697621
:100640003E266E6273703B52656D6F746520636FFA
:100650006E74726F6C207765627365727665722056
:10066000776974682041546D65676133323C2F644B
:1006700069763E3C2F623E3C2F74643E3C2F747280
:100680003E3C747220616C69676E3D226C656674D5
:10069000223E3C7464206865696768743D2232308C
:1006A000222076616C69676E3D22746F702220771C
:1006B000696474683D22373525223E3C623E3C64C5
:1006C0006976207374796C653D22636F6C6F723A42
:1006D00023464646464646223E266E6273703B449B
:1006E0006576696365733C2F6469763E3C2F623E94
:1006F0003C2F74643E3C7464206865696768743D8F
:10070000223230222076616C69676E3D22746F70F0
:10071000222077696474683D226175746F223E3CC3
:10072000623E3C646976207374796C653D22636F28
:100730006C6F723A23464646464646223E266E6215
:1007400073703B53656E736F72733C2F6469763EB2
:100750003C2F623E3C2F74643E3C2F74723E3C74CE
:10076000723E3C7464206865696768743D226175F7
:10077000746F222076616C69676E3D22746F7022FF
:100780002077696474683D22323030223E3C703EEE
:100790003C2F703E3C6469763E3C666F726D206D06
:1007A0006574686F643D22504F5354222061637416
:1007B000696F6E3D22223E3C7374726F6E673E3CE1
:1007C0007461626C65206267636F6C6F723D222397
:1007D000643064306430222077696474683D223963
:1007E00035252220626F726465723D2231222061BC
:1007F0006C69676E3D2263656E7465722220696460
:100800003D227461626C655F646576696365223E52
:100810003C747220616C69676E3D2263656E74651D
:1008200072223E3C74642077696474683D223135DD
:1008300025223E4E616D65733C2F74643E3C7464AA
:100840002077696474683D223925223E4E6F7720F7
:100850005374617465733C2F74643E3C74642077F8
:10086000696474683D22313125223E436F6E747293
:100870006F6C2050616E656C3C2F74643E3C7464F8
:100880003E436F6D6D616E643C2F74643E3C7464D6
:100890002077696474683D22313525223E436F75A7
:1008A0006E74646F776E20284D696E757465732958
:1008B0003C2F74643E3C74642077696474683D2204
:1008C000313125223E54696D65722053746174750F
:1008D000733C2F74643E3C74642077696474683D93
:1008E00022313525223E4175746F204F4E20283C21
:1008F0007375703E6F3C2F7375703E43293C2F74A7
:10090000643E3C2F74723E3C747220616C69676E69
:100910003D2263656E746572223E3C74643E44659C
:100920007669636520313C2F74643E3C74643E3CC0
:1009300064697620636C6173733D2225434C3122D8
:100940003E3C2F74643E3C74643E3C696E7075742A
:1009500020747970653D22636865636B626F7822ED
:10096000206E616D653D2252454C41593122207601
:10097000616C75653D224F4E2225524C313E3C2F15
:100980006469763E3C2F74643E3C74643E3C696E00
:1009900070757420747970653D22746578742220B6
:1009A0006E616D653D224175746F31222F3E3C2F83
:1009B00074643E3C74643E254344313C2F74643E71
:1009C0003C74643E255453313C2F74643E3C746443
:1009D0003E255441313C2F74643E3C2F74723E3CA2
:1009E000747220616C69676E3D2263656E74657216
:1009F000223E3C74643E44657669636520323C2F38
:100A000074643E3C74643E3C64697620636C61733C
:100A1000733D2225434C32223E3C2F74643E3C748D
:100A2000643E3C696E70757420747970653D226314
:100A30006865636B626F7822206E616D653D22523E
:100A4000454C415932222076616C75653D224F4EEE
:100A50002225524C323E3C2F6469763E3C2F746412
:100A60003E3C74643E3C696E7075742074797065A8
:100A70003D227465787422206E616D653D2241755A
:100A8000746F32222F3E3C2F74643E3C74643E25CA
:100A90004344323C2F74643E3C74643E25545332CC
:100AA0003C2F74643E3C74643E255441323C2F74A8
:100AB000643E3C2F74723E3C747220616C69676EB8
:100AC0003D2263656E746572223E3C74643E4465EB
:100AD0007669636520333C2F74643E3C74643E3C0D
:100AE00064697620636C6173733D2225434C332225
:100AF0003E3C2F74643E3C74643E3C696E70757479
:100B000020747970653D22636865636B626F78223B
:100B1000206E616D653D2252454C4159332220764D
:100B2000616C75653D224F4E2225524C333E3C2F61
:100B30006469763E3C2F74643E3C74643E3C696E4E
:100B400070757420747970653D2274657874222004
:100B50006E616D653D224175746F33222F3E3C2FCF
:100B600074643E3C74643E254344333C2F74643EBD
:100B70003C74643E255453333C2F74643E3C74648F
:100B80003E255441333C2F74643E3C2F74723E3CEE
:100B9000747220616C69676E3D2263656E74657264
:100BA000223E3C74643E44657669636520343C2F84
:100BB00074643E3C74643E3C64697620636C61738B
:100BC000733D2225434C34223E3C2F74643E3C74DA
:100BD000643E3C696E70757420747970653D226363
:100BE0006865636B626F7822206E616D653D22528D
:100BF000454C415934222076616C75653D224F4E3B
:100C00002225524C343E3C2F6469763E3C2F74645E
:100C10003E3C74643E3C696E7075742074797065F6
:100C20003D227465787422206E616D653D224175A8
:100C3000746F34222F3E3C2F74643E3C74643E2516
:100C40004344343C2F74643E3C74643E2554533416
:100C50003C2F74643E3C74643E255441343C2F74F4
:100C6000643E3C2F74723E3C2F7374726F6E673E0D
:100C70003C2F7461626C653E3C7020616C69676EEC
:100C80003D2263656E746572223E3C696E707574B8
:100C900020747970653D227375626D6974222076C7
:100CA000616C75653D225375626D697422206E61B9
:100CB0006D653D22535542223E3C2F703E3C2F66CF
:100CC0006F726D3E3C2F6469763E3C2F74643E3CEF
:100CD0007464206865696768743D226175746F2269
:100CE00020616C69676E3D2263656E7465722220B7
:100CF00076616C69676E3D2263656E746572222051
:100D000077696474683D226175746F223E3C646942
:100D100076207374796C653D22666F6E742D7369ED
:100D20007A653A353570743B20636F6C6F723A2385
:100D300046464646464620223E2541443C73757051
:100D40003E6F3C2F7375703E433C2F6469763E3C8A
:100D50002F74643E3C2F74723E3C747220616C6947
:100D6000676E3D226C656674223E3C746420636F3E
:100D70006C7370616E3D2234222068656967687407
:100D80003D226175746F222076616C69676E3D2229
:100D9000746F70222077696474683D226175746F86
:100DA000223E3C623E3C646976207374796C653DFA
:100DB00022636F6C6F723A23464646464646223E91
:100DC000266E6273703B4D616E75616C733C2F646F
:100DD00069763E3C2F623E3C2F74643E3C2F747219
:100DE0003E3C747220616C69676E3D226C6566746E
:100DF000223E3C7464206267636F6C6F723D2223F5
:100E000064306430643022636F6C7370616E3D22B5
:100E10003422206865696768743D226175746F22A9
:100E20002076616C69676E3D22746F70222077694D
:100E30006474683D226175746F223E3C6469763E3D
:100E4000266E6273703B436F6D6D616E64203A264F
:100E50006E6273703B203C623E266C743B5374613F
:100E60007465732667743B266C743B4D696E7574AC
:100E700065732667743B3C2F623E20616E64203CA4
:100E8000623E266C743B54656D7065726174757258
:100E9000652056616C75652667743B266C743B5300
:100EA00074617465732667743B3C2F623E2E3C620E
:100EB000722F3E266E6273703B4578313A204F4662
:100EC000463135206D65616E7320646576696365B2
:100ED000207475726E206F6666206166746572207C
:100EE0003135206D696E757465732E3C62722F3ECC
:100EF000266E6273703B4578323A2033354F4E2070
:100F00006D65616E732069662074656D70657261D0
:100F1000747572652068696768657220333520438F
:100F2000656C736975732C206465766963652069E7
:100F300073206F6E20616E642072657665727365D2
:100F40002E3C2F6469763E3C2F74643E3C2F7472B5
:100F50003E3C74723E3C746420636F6C7370616ECF
:100F60003D223422206865696768743D226175748A
:100F70006F222077696474683D226175746F223E28
:100F80003C64697620616C69676E3D2263656E74AE
:100F9000657222207374796C653D22636F6C6F7289
:100FA0003A23464646464646223E44657369676E86
:100FB0006564206279204C616D204E676F63204329
:100FC0006869656E3C6469763E54696D657A6F6EDA
:100FD000653A20474D542B372E2043757272656E4B
:100FE000742074696D65203C7370616E3E255449B0
:100FF0003C2F7370616E3E3C2F6469763E3C2F64DB
:1010000069763E3C2F74643E3C2F74723E3C2F74D4
:10101000626F64793E3C2F7461626C653E3C2F6266
:101020006F64793E3C2F68746D6C3E004175746846
:101030006F72697A6174696F6E00485454502F3131
:101040002E302032303020446F63756D656E742011
:10105000666F6C6C6F77730D0A5365727665723AC2
:10106000204156525F536D616C6C5F5765627365CA
:10107000727665720D0A436F6E74656E742D5479C5
:1010800070653A20746578742F68746D6C0D0A0D64
:101090000A00485454502F312E302034303120551E
:1010A0006E617574686F72697A65640D0A53657252
:1010B0007665723A204156525F536D616C6C5F5792
:1010C00065627365727665720D0A5757572D4175C3
:1010D0007468656E7469636174653A20426173690E
:1010E00063207265616C6D3D224E6565645061736D
:1010F00073776F7264220D0A436F6E74656E742D80
:10110000547970653A20746578742F68746D6C0D2D
:101110000A0D0A0034303120556E617574686F72A3
:10112000697A656425454E4400485454502F312E49
:101130003120353031204E6F7420496D706C656DF3
:10114000656E7465640D0A5365727665723A204166
:1011500056525F536D616C6C5F5765627365727652
:1011600065720D0A5757572D41757468656E74691D
:10117000636174653A204261736963207265616CD2
:101180006D3D224D7920415652207765622073656E
:1011900072766572220D0A436F6E74656E742D54FB
:1011A0007970653A20746578742F68746D6C0D0AD7
:1011B0000D0A004142434445464748494A4B4C4D7D
:1011C0004E4F505152535455565758595A616263B5
:1011D0006465666768696A6B6C6D6E6F7071727357
:1011E0007475767778797A303132333435363738EA
:1011F000392B2F3D004150504C593D4170706C7956
:101200000052454C4159343D4F4E0052454C4159D6
:10121000333D4F4E0052454C4159323D4F4E0052E6
:10122000454C4159313D4F4E005355423D53756237
:101230006D6974000A0D000A0D4D41433A200053B8
:10124000656E64696E67204950207061636B6574D8
:101250000D0A416464723A20000A0D00476174650A
:10126000776179203A20000A0D004E65746D617334
:101270006B203A20000A0D0049502041646472201E
:101280003A200025642E25642E25642E2564002531
:10129000783A25783A25783A25783A25783A2578A3
:1012A0000047657474696E67204950204164647218
:1012B0006573732E2E2E2E0D0A0045746865726EAE
:1012C0006574206368697020696E69740D0A00494D
:1012D0006E697469616C697A696E67204E657477AE
:1012E0006F726B20496E7465726661636520616E12
:1012F0006420537461636B0D0A000D0A4E545461EF
:101300006D20415652206E6574776F726B20746544
:101310007374696E67207769746820656E6332380C
:101320006A36302E0D0A000A0D0044656661756C40
:101330007420476174657761793A20000A0D005383
:1013400075626E6574204D61736B3A20000A0D0062
:1013500049502020416464726573733A20000A0D7D
:10136000004D414320416464726573733A2000303C
:1013700031323334353637383941424344454600FB
:1013800011241FBECFE5D8E0DEBFCDBF10E0A0E640
:10139000B0E0E0E9F9E502C005900D92A038B10790
:1013A000D9F716E0A0E8B0E001C01D92A83FB10750
:1013B000E1F70E949E200C94C62C0C940000EEE8ED
:1013C000F0E086EE90E01082118212821382128683
:1013D0003B96E817F907B9F70895E7E8F0E0282FFA
:1013E000392FD90186E00D9001928150E1F74093A9
:1013F0008300509384006093850070938600089565
:10140000EEE8F0E0A0E0208131814281538126178F
:1014100037074807590719F42285222329F4AF5FBB
:101420003B96A83081F7AFEF8A2F0895EF92FF9295
:101430000F931F93DF93CF9300D000D000D0CDB790
:10144000DEB749835A836B837C838D839E837801C7
:101450008901C801B7010E94000A883028F08091F4
:101460009800882369F536C090E0DC01AA0FBB1F05
:101470009C01220F331F220F331F220F331FA20F95
:10148000B31FA80FB91FAE56BF4FFE01319626E01D
:1014900001900D922150E1F7FC01EE0FFF1F9C011E
:1014A000220F331F220F331F220F331FE20FF31FB0
:1014B0008E0F9F1FFC01E257FF4F8AEF82873FC0CC
:1014C000E3EAF0E080E090E001969C014081442353
:1014D00091F502C020E030E0D901AA0FBB1FC9017D
:1014E000880F991F880F991F880F991FA80FB91F80
:1014F000A20FB31FAE56BF4FFE01319686E001909A
:101500000D928150E1F7F901EE0FFF1FC901880F1D
:10151000991F880F991F880F991FE80FF91F2E0F29
:101520003F1FF901E257FF4FE082F18202831383EC
:101530008AEF828704C03B968730910529F626966C
:101540000FB6F894DEBF0FBECDBFCF91DF911F91D4
:101550000F91FF90EF9008958F929F92AF92BF925C
:10156000CF92DF92EF92FF920F931F93CF93DF936F
:101570007C01EB010F2EFEE0CF2EDD24F02DC60EF8
:10158000D71E8E859F8521E08030920709F01CC10F
:10159000F601828193818830910509F015C184811B
:1015A000863009F011C18581843009F00DC1209188
:1015B0008300309184004091850050918600852EF3
:1015C0009924AA24BB24B22FAA2799278827882ADE
:1015D000992AAA2ABB2ADA01C90180709070B070DA
:1015E000892F9A2FAB2FBB2788299929AA29BB2994
:1015F000207040705070542F432F322F2227282BF9
:10160000392B4A2B5B2B808D918DA28DB38D821748
:101610009307A407B50709F0D7C086819781F1E049
:1016200080309F0709F099C0F601268537854089EB
:101630005189852E9924AA24BB24B22FAA27992741
:101640008827882A992AAA2ABB2ADA01C901807028
:101650009070B070892F9A2FAB2FBB2788299929BA
:10166000AA29BB292070407050700027122F232F09
:10167000342F082B192B2A2B3B2B40855185628553
:101680007385848595850E94160AD6015296F601C7
:10169000389686E001900D928150E1F7F60186853B
:1016A0009785A089B189808F918FA28FB38FD60142
:1016B0001896E7E8F0E086E001900D928150E1F79E
:1016C00020918300309184004091850050918600E4
:1016D000852E9924AA24BB24B22FAA2799278827CC
:1016E000882A992AAA2ABB2ADA01C9018070907037
:1016F000B070892F9A2FAB2FBB27882A992AAA2A44
:10170000BB2ADA01C9018070A070B070BA2FA92F6E
:10171000982F882788299929AA29BB29F601868725
:101720009787A08BB18B80E092E097838683DE0160
:10173000FE01369686E001900D928150E1F7DE01C0
:101740001696E7E8F0E086E001900D928150E1F70F
:10175000C701BE010E94EC1437C0F2E080309F0741
:1017600099F5F60186859785A089B189EB2EFF242E
:1017700000271127582F442733272227E22AF32A4C
:10178000042B152B9C01AD01207030705070232F5D
:10179000342F452F55272E293F29402B512B807060
:1017A000A070B070BA2FA92F982F882789019A01AD
:1017B000082B192B2A2B3B2B40855185628573857D
:1017C000848595850E94160ADF91CF911F910F9114
:1017D000FF90EF90DF90CF90BF90AF909F908F9051
:1017E00008950F931F93FC01828D938DA48DB58D69
:1017F0004B2F552766277727382F222711270027B9
:10180000402B512B622B732B8C019D0100701070AB
:101810003070012F122F232F3327042B152B262B4B
:10182000372B8070A070B070BA2FA92F982F8827FF
:10183000082B192B2A2B3B2B4681578160857185FC
:10184000828593850E94160A1F910F910895EF9249
:10185000FF920F931F93CF93DF93EC014115510536
:101860006105710529F0CB01BA010E94000A2AC066
:101870008E8D9F8DA8A1B9A1EB2EFF2400271127E3
:10188000582F442733272227E22AF32A042B152B2B
:101890009C01AD01207030705070232F342F452FE4
:1018A00055272E293F29402B512B8070A070B070F6
:1018B0006627782F892F9A2F622B732B842B952BD9
:1018C0000E94000A883030F5DE011696E7E8F0E065
:1018D00096E001900D929150E1F790E0FC01EE0F3F
:1018E000FF1F9C01220F331F220F331F220F331FB4
:1018F000E20FF31F8E0F9F1FDE01FC01EE56FF4F1C
:1019000086E001900D928150E1F788E090E09D879C
:101910008C8714C0DE011696E7E8F0E086E00190BF
:101920000D928150E1F78FEF888389838A838B83BF
:101930008C838D8388E090E09D878C87DF91CF91A9
:101940001F910F91FF90EF900895E8E9F0E080EF8C
:1019500090E02081222311F0215020833B96E8174C
:10196000F907B9F7089583EF90E00E94F21480918F
:10197000F3009091F400A091F500B091F6008093EF
:10198000E6009093E700A093E800B093E90010927E
:10199000EB001092EC001092ED001092EE0081E04E
:1019A0008093F90083E08093EA0008950F931F93DA
:1019B000CF93DF93FC01DC016D9341838D010F5FB9
:1019C0001F4F442399F0822F932F415050E03396BC
:1019D000E40FF51FE801DC012D91CD012993CE170D
:1019E000DF07C9F74F5F5F4F040F151F8FEFF80137
:1019F0008083802F912FDF91CF911F910F910895B8
:101A0000CF93DF93FC018081882311F43196FBCFC3
:101A10008F3F09F18617B9F4EF01219651814517DF
:101A200008F4542F552369F03296822F932FDC014E
:101A300001965150850F911D21912D93A817B9073B
:101A4000D9F7888109C0CF0101965181FC01E50FCA
:101A5000F11D3196D8CF80E0DF91CF910895EF92BC
:101A6000FF920F931F93CF93DF93EC0100D08AEA8C
:101A700091E0EDB7FEB7928381830E94DE2A8FE961
:101A800091E0EDB7FEB7928381830E94DE2A0F902A
:101A90000F908881813019F08230C9F40CC000D0D9
:101AA00083E991E0EDB7FEB7928381830E94DE2A3D
:101AB0000F900F9017C000D089E891E0EDB7FEB706
:101AC000928381830E94DE2A0F900F900BC000D07A
:101AD00081E891E0EDB7FEB7928381830E94DE2A10
:101AE0000F900F9000D08EE791E0EDB7FEB7928394
:101AF00081830E94DE2A81E791E0EDB7FEB79283F1
:101B000081830E94DE2A8EE691E0EDB7FEB79283D4
:101B100081830E94DE2A83E691E0EDB7FEB79283CF
:101B200081830E94DE2A8C859D85AE85BF850F90BE
:101B30000F90EB2EFF2400271127582F442733271F
:101B40002227E22AF32A042B152B9C01AD012070D9
:101B500030705070232F342F452F55272E293F29C1
:101B6000402B512B8070A070B0706627782F892F82
:101B70009A2F622B732B842B952B0E94F51B00D080
:101B800080E691E0EDB7FEB7928381830E94DE2A62
:101B900085E591E0EDB7FEB7928381830E94DE2A4E
:101BA00088899989AA89BB890F900F90EB2EFF2411
:101BB00000271127582F442733272227E22AF32A08
:101BC000042B152B9C01AD01207030705070232F19
:101BD000342F452F55272E293F29402B512B80701C
:101BE000A070B0706627782F892F9A2F622B732BE5
:101BF000842B952B0E94F51B00D082E591E0EDB778
:101C0000FEB7928381830E94DE2A87E491E0EDB7DC
:101C1000FEB7928381830E94DE2A8C899D89AE89DA
:101C2000BF890F900F90EB2EFF2400271127582F0C
:101C3000442733272227E22AF32A042B152B9C0161
:101C4000AD01207030705070232F342F452F552751
:101C50002E293F29402B512B8070A070B070662731
:101C6000782F892F9A2F622B732B842B952B0E9410
:101C7000F51B00D084E491E0EDB7FEB79283818339
:101C80000E94DE2A89E391E0EDB7FEB7928381835B
:101C90000E94DE2A888D998DAA8DBB8D0F900F90A2
:101CA000EB2EFF2400271127582F44273327222704
:101CB000E22AF32A042B152B9C01AD012070307011
:101CC0005070232F342F452F55272E293F29402B85
:101CD000512B8070A070B0706627782F892F9A2FB3
:101CE000622B732B842B952B0E94F51B00D086E36F
:101CF00091E0EDB7FEB7928381830E94DE2A8BE2EA
:101D000091E0EDB7FEB7928381830E94DE2A0F90A7
:101D10000F90CE014C960E94B91B00D088E291E052
:101D2000EDB7FEB7928381830E94DE2A0F900F9059
:101D3000DF91CF911F910F91FF90EF9008952F9217
:101D40003F924F925F926F927F928F929F92AF924B
:101D5000BF92CF92DF92EF92FF920F931F93DF9388
:101D6000CF9300D000D0CDB7DEB70E945F158C01B5
:101D70000F2EFAE2EF2EFF24F02DE80EF91E81E07F
:101D8000F80182A7F701818386E082830E94B61B57
:101D9000FC01A080B180C280D380DA2CCC24BB248B
:101DA000AA240E94B61BFC0180819181A281B3818B
:101DB00080709070B070292E3A2E4B2E55240E94C0
:101DC000B61BFC0180819181A281B3818070A070DB
:101DD000B0706624782E892E9A2E0E94B61BFC01C4
:101DE000838190E0A0E0B0E0A82AB92ACA2ADB2AC1
:101DF000A228B328C428D5286A287B288C289D28A7
:101E0000F7016486758686869786108A118A128AFB
:101E1000138A148A158A168A178A108E118E128ECA
:101E2000138EC7014C960E94F2148091E6009091A7
:101E3000E700A091E800B091E900F7018483958361
:101E4000A683B78380E091E093878287F801EA5EFA
:101E5000FE4F83E692E8A3E5B3E680839183A283F5
:101E6000B38381E090E0A0E0B0E089839A83AB8304
:101E7000BC83C801865E9E4F65E341E09E012F5FF3
:101E80003F4F0E94D60C6DE346E023EF30E00E9406
:101E9000D60C00D082E191E0EDB7FEB7928381834A
:101EA0000E94DE2A0F900F90C7010E942F0D6FEF46
:101EB0007FEFCB0143E450E024E430E00CEF10E08E
:101EC0000E94912B0F900F900F900F90CF91DF9168
:101ED0001F910F91FF90EF90DF90CF90BF90AF9048
:101EE0009F908F907F906F905F904F903F902F903A
:101EF0000895DF92EF92FF920F931F93DF93CF939A
:101F0000CDB7DEB728970FB6F894DEBF0FBECDBFB2
:101F10007C014D835E836F837887DD24D394FC013D
:101F2000D08283E090E0A0E0B0E089839A83AB8325
:101F3000BC83C70180519F4F65E341E08E010F5F75
:101F40001F4F98010E94D60C6DE346E023EF30E06E
:101F50000E94D60C66E344E09E012B5F3F4F0E9437
:101F6000D60C9701205F3F4F62E344E00E94D60CFD
:101F7000D98223E0F801218326E022832FE0238306
:101F800067E344E098010E94D60CF701108A118A99
:101F9000128A138A00D085EE90E0EDB7FEB79283E7
:101FA00081830E94DE2A0F900F906FEF7FEFCB01AD
:101FB00043E450E024E430E00EE011E00E94912B75
:101FC00028960FB6F894DEBF0FBECDBFCF91DF913C
:101FD0001F910F91FF90EF90DF9008954F925F92C5
:101FE0006F927F928F929F92AF92BF92CF92DF9229
:101FF000EF92FF920F931F93DF93CF93CDB7DEB78E
:102000002D970FB6F894DEBF0FBECDBF8B01CB016D
:102010000E942F0DD8018C91823009F096C1149640
:102020002D913D914D915C9117978091E600909193
:10203000E700A091E800B091E900281739074A07A6
:102040005B0709F082C10F2EF0EFEF2EFF24F02D79
:10205000E00EF11EC70165E341E09E012F5F3F4F97
:102060000E94000D00D000D0EDB7FEB7319687EC8E
:1020700090E0ADB7BEB712969C938E93119789816D
:10208000828313820E94DE2A89810F900F900F9025
:102090000F90823009F052C0C70166E344E09E0110
:1020A0002E5F3F4F0E94000D00D08AEA90E0EDB70E
:1020B000FEB7928381830E94DE2A8A819B81AC8154
:1020C000BD810F900F90CB2EDD24EE24FF24582FDE
:1020D000442733272227C22AD32AE42AF52A9C013F
:1020E000AD01207030705070232F342F452F5527AD
:1020F0002C293D294E295F298070A070B070662779
:10210000782F892F9A2F622B732B842B952B0E946B
:10211000F51B00D087EA90E0ADB7BEB712969C934E
:102120008E9311970E94DE2A0F900F904A815B8157
:102130006C817D81C8010E94790F07C1853009F04B
:1021400004C10F2EF6E0CF2EDD24F02DCC0EDD1EC7
:10215000C70161E044E096010E94000D8E809F80DF
:10216000A884B984C70163E044E096010E94000D91
:102170004E805F8068847984C70163E344E0960100
:102180000E94000D8E819F81A885B985CB2EDD240C
:10219000EE24FF24582F442733272227C22AD32A8C
:1021A000E42AF52A9C01AD01207030705070232F75
:1021B000342F452F55272C293D294E295F29807022
:1021C000A070B070CC24D82EE92EFA2E2C293D29EF
:1021D0004E295F292093EB003093EC004093ED00F3
:1021E0005093EE00F80180899189A289B389EB2E82
:1021F000FF2400271127582F442733272227E22ABC
:10220000F32A042B152B9C01AD0120703070507007
:10221000232F342F452F55272E293F29402B512B73
:102220008070A070B070EE24F82E092F1A2FDA01FA
:10223000C9018E299F29A02BB12B8A879B87AC8748
:10224000BD872B2D332744275527B82DAA2799273B
:102250008827282B392B4A2B5B2BD501C401807092
:102260009070B070892F9A2FAB2FBB27282B392B5A
:102270004A2B5B2BD501C4018070A070B070BA2FBF
:10228000A92F982F8827282B392B4A2B5B2BE72C3B
:10229000FF2400271127B42DAA2799278827E82A89
:1022A000F92A0A2B1B2BD301C20180709070B070E9
:1022B000892F9A2FAB2FBB27E82AF92A0A2B1B2B31
:1022C000D301C2018070A070B070BA2FA92F982FCF
:1022D0008827E82AF92A0A2B1B2B6A857B858C859F
:1022E0009D850E94711B1092EA0000D080E890E06A
:1022F000ADB7BEB712969C938E9311970E94DE2ABB
:102300000F900F900E94B61B0E94381C00D000D086
:1023100000D081E790E0EDB7FEB792838183809192
:10232000EB009091EC00A091ED00B091EE00838362
:102330009483A583B6830E94DE2A8DB79EB7069646
:102340000FB6F8949EBF0FBE8DBF2D960FB6F894B2
:10235000DEBF0FBECDBFCF91DF911F910F91FF90D8
:10236000EF90DF90CF90BF90AF909F908F907F9035
:102370006F905F904F9008952F923F924F925F928F
:102380006F927F928F929F92AF92BF92CF92DF9285
:10239000EF92FF920F931F93DF93CF9300D000D063
:1023A000CDB7DEB70E945F158C010F2EFAE2EF2E3B
:1023B000FF24F02DE80EF91E81E0F80182A7F70155
:1023C000818386E082830E94B61BFC01A080B180DD
:1023D000C280D380DA2CCC24BB24AA240E94B61B52
:1023E000FC0180819181A281B38180709070B07076
:1023F000292E3A2E4B2E55240E94B61BFC018081BB
:102400009181A281B3818070A070B0706624782E13
:10241000892E9A2E0E94B61BFC01838190E0A0E0D9
:10242000B0E0A82AB92ACA2ADB2AA228B328C428DD
:10243000D5286A287B288C289D28F7016486758614
:1024400086869786108A118A128A138A148A158AB8
:10245000168A178A108E118E128E138EC7014C9613
:102460000E94F2148091E6009091E700A091E800AC
:10247000B091E900F70184839583A683B78380E058
:1024800091E093878287F801EA5EFE4F83E692E847
:10249000A3E5B3E680839183A283B38387E090E0D2
:1024A000A0E0B0E089839A83AB83BC83C801865ED9
:1024B0009E4F65E341E02E010894411C511C92019E
:1024C0000E94D60C2091EF003091F0004091F10075
:1024D0005091F200652E772488249924D22ECC24A2
:1024E000BB24AA246A287B288C289D280F2EF0E084
:1024F000AF2EF0E0BF2EFFEFCF2EF0E0DF2EF02D5D
:10250000A222B322C422D522AB2CBC2CCD2CDD249C
:102510006A287B288C289D28207040705070AA243F
:10252000B22EC32ED42EA628B728C828D928A9820F
:10253000BA82CB82DC8266E344E092010E94D60C30
:1025400098012A5C3F4F62E344E00E94D60C00D021
:1025500087E590E0EDB7FEB7928381830E94DE2A83
:102560000F900F906091EF007091F0008091F1005A
:102570009091F2000E94F51B00D084E590E0EDB749
:10258000FEB7928381830E94DE2A0F900F906091A4
:10259000EF007091F0008091F1009091F20043E41F
:1025A00050E024E430E000E011E00E94912B60E074
:1025B00070E0CB0120E030E0A901EE24FF24870188
:1025C0000E94711B1092EB001092EC001092ED0033
:1025D0001092EE000F900F900F900F90CF91DF911F
:1025E0001F910F91FF90EF90DF90CF90BF90AF9031
:1025F0009F908F907F906F905F904F903F902F9023
:1026000008958091EB009091EC00A091ED00B091C5
:10261000EE000097A105B10559F00197A109B10994
:102620008093EB009093EC00A093ED00B093EE004C
:102630008091F900882319F081508093F900089562
:102640008091EA00882361F09091F900992341F488
:1026500081508093EA008AE08093F9000E949F0EE7
:102660000895C398962F6F71682B6FB9779BFECF33
:102670001FB8779BFECF99231CF41FB8779BFECF22
:102680008FB1C39A0895C3986F71682B6FB9779B08
:10269000FECF4FB9779BFECFC39A08951F93CF9378
:1026A000DF93182FC82FD0E0C076D0708091FC0047
:1026B00090E0C817D907B9F080EA6FE143E00E94C3
:1026C0004313AE01559547955595479555954795B3
:1026D000559547955595479580E86FE10E944313BE
:1026E00010761093FC00DF91CF911F910895C3984D
:1026F0002AE32FB9779BFECF009749F0E62FF72FFB
:102700001FB8779BFECF2FB121930197C9F7C39ACA
:102710000895FB01C3982AE72FB9779BFECF05C028
:1027200021912FB9779BFECF01970097C9F7C39AE4
:1027300008951F93182F0E944E1380E0612F0E946E
:1027400031131F9108950F931F93182F062F0E9486
:102750004E1380E4612F402F0E9443131F910F916D
:102760000895EF92FF92CF93DF93682F84ED0E943C
:10277000A31382ED61E00E94A3138AEE0E949913D5
:1027800080FDFBCF82ED60E00E94A31388ED0E94E4
:102790009913C82FD0E089ED0E94991390E0C82BBF
:1027A000D92B7E018C2F9F2DDF91CF91FF90EF9041
:1027B00008950F931F93982F062F172F84ED692FDD
:1027C0000E94A31386ED602F0E94A31387ED612F53
:1027D0000E94A3138AEE0E94991380FDFBCF1F91E4
:1027E0000F9108950F931F93CF93DF93082F192F05
:1027F000EB0182E060E00E94A31383E060E00E94AE
:10280000A31386E0602F0E94A31387E0612F0E942C
:10281000A3138AE760E040E00E944313802F912FCA
:10282000BE010E94891380E86FE148E00E944313D3
:10283000DF91CF911F910F910895EF92FF920F9327
:102840001F93CF93DF938C017B0189E30E9499133F
:10285000882309F450C080E06091FA000E94A3131D
:102860006091FB0081E00E94A3138AE360E00E9474
:1028700031138093FA001092FB008AE360E00E941B
:102880003113382F20E08091FA009091FB00282B23
:10289000392B3093FB002093FA008AE360E00E941A
:1028A0003113C82FD0E08AE360E00E943113382F43
:1028B00020E0C22BD32B8AE360E00E9431138AE32D
:1028C00060E00E9431130C171D0708F4E801CE01E7
:1028D000B7010E9477138CE06091FA000E94A31365
:1028E0006091FB008DE00E94A31380E86EE140E45C
:1028F0000E94431302C0C0E0D0E07E018C2F9F2DC8
:10290000DF91CF911F910F91FF90EF900895039663
:1029100065E070E00E94902C660F771F660F771FAE
:10292000660F771F6115710531F080E090E0019628
:1029300086179707E0F30895CF93DF938FEF809387
:10294000FC00BB9AC39AC79A87B3806B87BBBE98BB
:1029500080E58DB91EB88FEF60E04FEF0E94431302
:10296000C9EEDDEF8DE10E94991380FD02C0219731
:10297000C9F780E096E09093FB008093FA00C1E0F5
:10298000D0E0FE01E854FE4F8491FE01E754FE4F73
:1029900064910E94A3132296CD32D10591F780E174
:1029A00060E071E00E94D91380E86BE140EC0E9486
:1029B000431380E86FE144E00E94431384E16AE737
:1029C00074E30E94D913DF91CF9108950E949C1463
:1029D0008BB780628BBF08950E94F21308950E9406
:1029E0001D140895EF92FF920F931F93CF93DF93DF
:1029F0008C0184EE0E949913E801899385EE0E9470
:102A00009913F80181838E010F5F1F4F82EE0E94A0
:102A10009913898378010894E11CF11C83EE0E94CC
:102A20009913F8018183E701219680EE0E949913A2
:102A3000F701818381EE0E9499138983DF91CF9101
:102A40001F910F91FF90EF900895CF92DF92EF9238
:102A5000FF920F931F93CF93DF93EC018C010F5FD5
:102A60001F4F84EE68810E94A31368010894C11C63
:102A7000D11C85EE69810E94A31376010894E11CA4
:102A8000F11C82EEF80161810E94A313E7012196F7
:102A900083EEF60161810E94A31380EEF70161814C
:102AA0000E94A31381EE69810E94A313DF91CF914D
:102AB0001F910F91FF90EF90DF90CF9008958FEFCF
:102AC00090E008951F920F920FB60F9211248F93EA
:102AD00081E0809380001092FE001092FD008BB781
:102AE0008F7D8BBF8F910F900FBE0F901F90189509
:102AF0000F931F93CF93DF9380918000882369F118
:102B00008EE194E06FEF70E00E94EF14082F192F10
:102B10000115110511F120910B0130910C012830A4
:102B2000310569F4CFEFD0E0CE010E94F10BBE0178
:102B3000625F7F4FC8010E970E948B1D0BC046E05D
:102B40002830340729F46FEF70E00E94AC0A02C00D
:102B50000E94E6148BB780628BBFDF91CF911F91EB
:102B60000F9108950F931F93CF93DF93FC01808102
:102B7000882309F47DC0282F26952695DB012D9307
:102B8000CD01108113701295107FEB011983218103
:102B90002223B9F412C01695169513961C93D901E9
:102BA0001496EA011B8113701295107FE9011C83B2
:102BB000EA012C813396222321F4ED01219622E0B3
:102BC00028C022952F70120F1C939D01ED012196B4
:102BD000AF0111811F70110F110F11961C931197E6
:102BE0000281002319F4219621E013C00295069575
:102BF00006950370100F11961C93119712811F7385
:102C000012961C931297ED0123961381112319F646
:102C100020E01882C617D70791F0DB01EC91F0E0B5
:102C2000EF73F070ED54FE4EE491ED93CA17DB079D
:102C3000A9F7C81BD90B2196C60FD71F01C0EB01FE
:102C4000222381F0215030E0CE010196820F931FA4
:102C5000FE014DE34193E817F907E1F72F5F3F4F7E
:102C6000C20FD31F1882DF91CF911F910F9108954A
:102C7000FB011082EB01F6CF80E690E065EC75E099
:102C80000E94B21510921D05109232051092470550
:102C900010925C05109271051092860510929B05AA
:102CA0001092B0050895CF93DF93FC01EA01808173
:102CB000873449F49181953431F482818435F9F473
:102CC00081E088831EC0803561F481818F34B9F43E
:102CD00082818335A1F48381843589F482E08883FD
:102CE00010C0883461F48181853449F48281813453
:102CF00031F48381843419F483E0888302C084E052
:102D00008883DF01119680E090E00BC02D91203286
:102D100041F49C012F5F3F4F2E0F3F1F3A832983C1
:102D200014C001968617970788F30FC02D912032A3
:102D300081F49C012F5F3F4F2E0F3F1F3C832B835D
:102D4000DC011196AE0FBF1F1BC0DC011196AE0F48
:102D5000BF1F01968617970748F3F2CF2D912D30AC
:102D600079F42C912A3061F49C012E5F3F4F2E0F95
:102D70003F1F3E832D83DC011196AE0FBF1F12C093
:102D800001968617970750F3F6CF2D912D3051F409
:102D90002C912A3039F411962C9111972D3011F481
:102DA000049604C001968617970778F3E80FF91F79
:102DB000F887EF83681B790B7A876987DF91CF915A
:102DC0000895FF920F931F93CF93DF93FB0105812B
:102DD0001681B8016450704027813085621B730BE7
:102DE00029F1D80120E030E040E050E0C0E0D0E040
:102DF000FD90FC01E20FF31FE4914F5F5F4FFE1661
:102E000019F42F5F3F4F01C09E01FC01E20FF31F39
:102E1000E491EE2329F44E5F5F4F040F151F08C0A5
:102E20004617570728F300E010E002C000E010E06A
:102E3000802F912FDF91CF911F910F91FF900895D7
:102E40002F923F924F925F926F927F928F929F92BA
:102E5000AF92BF92CF92DF92EF92FF920F931F93A8
:102E6000DF93CF9300D00F92CDB7DEB76C014B014B
:102E70002A0129830E945F150F2EF6E3AF2EBB2493
:102E8000F02DA80EB91E8114910409F0EAC0298121
:102E9000222329F085E0F201808B69E101C068E11D
:102EA000C20140E050E095010E9486210FC17801E7
:102EB0000894E11CF11CF601E00FF11FE491E532EA
:102EC00009F0BCC08A819B810996F3E0893E9F0787
:102ED00008F0DEC087010D5F1F4FC6018E0D9F1DDC
:102EE000FC012491233409F03FC0F7013196EC0D29
:102EF000FD1DE491EC34C1F5F7013296EC0DFD1D9A
:102F0000849180530E94C71E803FA1F4EA81FB8117
:102F1000EA0DFB1D2FE620832A813B812F5F3F4F67
:102F2000F501E20FF31F8EE68083F9013196FB83F2
:102F3000EA8391C0EA81FB81EA0DFB1D2FE6208325
:102F40002A813B812F5F3F4FF501E20FF31F86E699
:102F500080832F5F3F4FF501E20FF31F8083F9015C
:102F60003196FB83EA8377C0FC018491823509F0B6
:102F700059C0F7013196EC0DFD1DE491EC3409F0D8
:102F800051C0F7013296EC0DFD1D849180530E94D3
:102F9000C71E803F09F05EC0EA81FB81EA0DFB1D80
:102FA00020E220832A813B812F5F3F4FF501E20F12
:102FB000F31F83E680832F5F3F4FF501E20FF31F7E
:102FC00098E690832F5F3F4FF501E20FF31F85E6F0
:102FD00080832F5F3F4FF501E20FF31F93E690834D
:102FE0002F5F3F4FF501E20FF31F8BE680832F5FCA
:102FF0003F4FF501E20FF31F95E690832F5F3F4FA0
:10300000F501E20FF31F84E680832F5F3F4FF50148
:10301000E20FF31F90E29083F9013196FB83EA837C
:10302000870119C0EA81FB81EA0DFB1D60828A815C
:103030009B8101969B838A8387010DC0AA81BB81F6
:10304000AA0DBB1DEC93EA81FB813196FB83EA83D9
:10305000870101C087010815190589F4EA80FB8002
:1030600019C07724689473F800E010E02224332418
:103070000F2EF5E26F2EF02D3B822A8218CF8A8127
:103080009B81E3E0883E9E0708F411CF7C0102C0DB
:10309000EA80FB80F0E17F2A2981222371F0081564
:1030A000190559F485E0F201808B672D6160C2013A
:1030B000A70195010E94862109C0C201672DA701C1
:1030C00095010E94862108151905B0F20F900F9006
:1030D0000F90CF91DF911F910F91FF90EF90DF90B4
:1030E000CF90BF90AF909F908F907F906F905F90A8
:1030F0004F903F902F9008951F93CF93DF934115EA
:10310000510521F1A62FB72F20E030E060E070E0FC
:10311000C0E0D0E01D91FC01E20FF31FE4916F5F6E
:103120007F4F1E1719F42F5F3F4F01C09E01FC0116
:10313000E20FF31FE491EE2319F4621B730B08C036
:103140006417750738F36FEF7FEF02C06FEF7FEF03
:10315000862F972FDF91CF911F9108951F93CF93C3
:10316000DF934115510539F1E62FF72F60E070E04C
:1031700020E030E0C0E0D0E011912F5F3F4FDC0154
:10318000A60FB71FAC911A1719F46F5F7F4F01C0DC
:10319000BE01DC01A60FB71FAC91AA2319F4261BB0
:1031A000370B0EC0A081AA2349F02417350720F35E
:1031B0002FEF3FEF05C02FEF3FEF02C02FEF3FEFA4
:1031C000822F932FDF91CF911F910895AF92BF92DD
:1031D000CF92DF92EF92FF920F931F93CF93DF93E3
:1031E0007C016B018A01EDE1F5E040E080818823FC
:1031F00029F0838994898017910729F04F5F75968C
:103200004830A1F702C0483049F580911D05882358
:1032100059F0E2E3F5E080E090E041E001969C01A6
:1032200050815523B9F403C020E030E040E0C901EB
:10323000880F991F280F391FF901EE0FFF1FEE0F9E
:10324000FF1FEE0FFF1FE21BF30BE35EFA4F148B21
:10325000038B04C04F5F7596483001F7C42FD0E050
:10326000CE01880F991F8C0F9D1FFC01EE0FFF1FD1
:10327000EE0FFF1FEE0FFF1FE81BF90BE35EFA4F87
:103280008081882399F5CE01880F991F8C0F9D1F8F
:103290005C01AA0CBB1CAA0CBB1CAA0CBB1CA81A68
:1032A000B90AA5014B5D5A4FC701B6010E945316DA
:1032B000F501E35EFA4F8085843029F4F501E35E81
:1032C000FA4F108278C1CE01880F991F8C0F9D1F75
:1032D000FC01EE0FFF1FEE0FFF1FEE0FFF1FE81B9D
:1032E000F90BE35EFA4F83E0808303C0833009F07B
:1032F00062C1CE01880F991F8C0F9D1FFC01EE0F3C
:10330000FF1FEE0FFF1FEE0FFF1FE81BF90BE35E21
:10331000FA4F8781813009F44DC0CE01880F991F83
:103320008C0F9D1F5C01AA0CBB1CAA0CBB1CAA0C19
:10333000BB1CA81AB90AB5016B5D7A4F8CE290E10B
:103340000E94E116BC01F501E35EFA4F4785508902
:10335000481B590B85EC95E00E94AE182FEF8F3F6C
:10336000920731F0F501E35EFA4F81E0878322C0D6
:1033700082E990E161E870E0A80120E00E94201756
:1033800084E191E164E170E0A80121E00E9420174E
:10339000CE01880F991FC80FD91FFE01EE0FFF1F26
:1033A000EE0FFF1FEE0FFF1FEC1BFD0BE35EFA4F4E
:1033B000108201C1CE01880F991F8C0F9D1FFC0147
:1033C000EE0FFF1FEE0FFF1FEE0FFF1FE81BF90BA5
:1033D000E35EFA4F8085813009F055C0CE01880F39
:1033E000991F8C0F9D1FFC01EE0FFF1FEE0FFF1F9B
:1033F000EE0FFF1FE81BF90BE35EFA4F0184F28525
:10340000E02D80818F3229F58181803211F58AE3A8
:1034100090E167E570E0A80120E00E94201785EEAA
:1034200091E066E47EE0A80121E00E942017CE0131
:10343000880F991FC80FD91FFE01EE0FFF1FEE0F57
:10344000FF1FEE0FFF1FEC1BFD0BE35EFA4F108218
:10345000B2C089E291E16AE870E0A80121E00E942F
:103460002017CE01880F991FC80FD91FFE01EE0F3C
:10347000FF1FEE0FFF1FEE0FFF1FEC1BFD0BE35EA8
:10348000FA4F108298C0823009F095C089E292E12B
:10349000B701A6010E947C182FEF8F3F920709F415
:1034A00056C08FE192E1B701A6010E947C182FEF70
:1034B0008F3F920711F0AF9801C0AF9A85E192E17A
:1034C000B701A6010E947C182FEF8F3F920711F0E1
:1034D000AE9801C0AE9A8BE092E1B701A6010E94BE
:1034E0007C182FEF8F3F920711F0AD9801C0AD9A75
:1034F00081E092E1B701A6010E947C182FEF8F3F77
:10350000920711F0AC9801C0AC9A8AE390E167E5AC
:1035100070E0A80120E00E94201785EE91E066E4AB
:103520007EE0A80121E00E942017CE01880F991F9C
:10353000C80FD91FFE01EE0FFF1FEE0FFF1FEE0F8A
:10354000FF1FEC1BFD0BE35EFA4F108234C085EFCA
:1035500091E1B701A6010E947C182FEF8F3F9207DF
:1035600011F18AE390E167E570E0A80120E00E9494
:10357000201785EE91E066E47EE0A80121E00E943C
:103580002017CE01880F991FC80FD91FFE01EE0F1B
:10359000FF1FEE0FFF1FEE0FFF1FEC1BFD0BE35E87
:1035A000FA4F108208C08BE690E060E070E0A8015E
:1035B00020E00E942017DF91CF911F910F91FF9083
:1035C000EF90DF90CF90BF90AF9008950F931F932F
:1035D000CF93DF93EC018C010C5E1F4F1C8AF80126
:1035E000138212826A817B8176276727762764514E
:1035F0007040C8010E942D1BF80193838283888943
:103600009989AA89BB892C853D854E855F85288B44
:10361000398B4A8B5B8B8C879D87AE87BF878E01EA
:103620000E501040C80140E050E0BA010E94270C43
:103630008A819B819827892798270E96B8010E9436
:10364000EC14DF91CF911F910F910895FC01248913
:10365000283011F40E94E61A08950F931F93CF9318
:10366000DF938C0162307105E0F0FB01EC0180E03A
:1036700090E0DC012991399140E050E0820F931FE6
:10368000A41FB51F3297E230F105A0F762507040D9
:103690009B012E7F2E5F3F4F020F131F61707070D2
:1036A00003C080E090E0DC016115710531F0F801A4
:1036B0002081820F911DA11DB11D9D01109739F030
:1036C000820F931FA0E0B0E09D011097C9F79C0105
:1036D00020953095822F932FDF91CF911F910F91DD
:1036E0000895AF92BF92CF92DF92EF92FF920F9325
:1036F0001F93DF93CF9300D000D000D0CDB7DEB7BB
:103700005B016C016093D9057093DA058093DB054A
:103710009093DC052093DD053093DE054093DF05B3
:103720005093E005E092E105F092E2050093E30595
:103730001093E4058E010F5F1F4FC8010E94F21421
:10374000C801B601A5010E94ED0926960FB6F894AE
:10375000DEBF0FBECDBFCF91DF911F910F91FF90C4
:10376000EF90DF90CF90BF90AF90089589ED95E0F6
:103770000895CF93DF93DC018DB79EB70E970FB6F8
:10378000F8949EBF0FBE8DBFEDB7FEB731968FE8A0
:1037900092E1CDB7DEB79A8389838C9182831382BD
:1037A00011968C9111978483158212968C911297A1
:1037B0008683178213968C911397808711861496AF
:1037C0008C9114978287138615968C918487158621
:1037D0000E94DE2A8DB79EB70E960FB6F8949EBF54
:1037E0000FBE8DBFDF91CF910895DF93CF9300D0AF
:1037F00000D0CDB7DEB769837A838B839C839E012B
:103800002F5F3F4F8DB79EB70A970FB6F8949EBFB4
:103810000FBE8DBFEDB7FEB7319683E892E1ADB72D
:10382000BEB712969C938E931197D90113968C91E3
:1038300013978283138212968C9112978483158238
:1038400011968C91868317828981808711860E94C8
:10385000DE2A8DB79EB70A960FB6F8949EBF0FBEAC
:103860008DBF0F900F900F900F90CF91DF91089523
:10387000CF93DF93EC0100D088E792E1EDB7FEB77C
:10388000928381830E94DE2A0F900F906881798154
:103890008A819B810E94F51B00D085E792E1EDB7FC
:1038A000FEB7928381830E94DE2A8AE692E1EDB719
:1038B000FEB7928381830E94DE2A0F900F906C8165
:1038C0007D818E819F810E94F51B00D087E692E169
:1038D000EDB7FEB7928381830E94DE2A8CE592E1E8
:1038E000EDB7FEB7928381830E94DE2A0F900F907E
:1038F000688579858A859B850E94F51B00D089E5BE
:1039000092E1EDB7FEB7928381830E94DE2A0F9089
:103910000F90DF91CF9108956F927F928F929F9237
:10392000AF92BF92CF92DF92EF92FF920F931F93CD
:10393000CF93DF935B016C01E42FE80164970F2EB6
:10394000FEED8F2EFFEF9F2EF02D800E911E0F2E7D
:10395000F4E16F2E7724F02D620E731E292F33278A
:1039600044275527B62FAA2799278827822B932BE0
:10397000A42BB52BB601A501407050707070452F77
:10398000562F672F77279A01AB01282B392B4A2B0B
:103990005B2BD601C5018070A070B070BA2FA92F23
:1039A000982F8827822B932BA42BB52B888B998B50
:1039B000AA8BBB8B8091D9059091DA05A091DB058C
:1039C000B091DC05EB2EFF2400271127582F442748
:1039D00033272227E22AF32A042B152B9C01AD0161
:1039E000207030705070232F342F452F55272E29EB
:1039F0003F29402B512B8070A070B070EE24F82E20
:103A0000092F1A2F2E293F29402B512B2C873D8718
:103A10004E875F87E987962D872D9B838A8385E470
:103A2000888319821D821C821F821E8280E88887FB
:103A30001B861A86CE0164E170E00E942D1B9B87D5
:103A40008A872091D9053091DA054091DB055091A4
:103A5000DC052A253B254C255D258091DD059091CF
:103A6000DE05A091DF05B091E00582239323A42316
:103A7000B5230097A105B10539F4C40140E050E039
:103A8000BA010E94270C0BC04091E1055091E2055C
:103A90006091E3057091E405C4010E94270C00D0F9
:103AA0008FE392E1EDB7FEB7928381830E94DE2A15
:103AB0000F900F90C601B5010E94F51B00D087E35F
:103AC00092E1EDB7FEB7928381830E94DE2A0F90C8
:103AD0000F90C4010E94B91B00D084E392E1EDB7BE
:103AE000FEB7928381830E94DE2A0F900F90C3015C
:103AF0000E96B4010E94EC14DF91CF911F910F91AB
:103B0000FF90EF90DF90CF90BF90AF909F908F90FD
:103B10007F906F900895CF92DF92EF92FF920F9374
:103B20001F93CF93DF936C01EB0188899989AA8950
:103B3000BB89EB2EFF2400271127582F442733275A
:103B40002227E22AF32A042B152B9C01AD012070B9
:103B500030705070232F342F452F55272E293F29A1
:103B6000402B512B8070A070B070EE24F82E092FDE
:103B70001A2FE22AF32A042B152B0E94B61BFC01F4
:103B80002081318142815381E216F3060407150733
:103B9000D9F084819581A681B781822B932BA42BA8
:103BA000B52BE816F9060A071B0771F08FEFE81628
:103BB0008FEFF8068FEF08078FEF180729F0211510
:103BC000310541055105F1F48985813021F4CE019B
:103BD0000E94261B17C0813129F4C601BE010E9434
:103BE0007E2C10C0863071F4888190E08F709070C8
:103BF000880F991F880F991FB601681B790BCE019A
:103C00000E942E23DF91CF911F910F91FF90EF9093
:103C1000DF90CF9008958BB3806F8BBB8AB38F708A
:103C20008ABBDB9ADB9A89B3DB98DB9ADB9A99B380
:103C3000DB9892959F70807F892B08959BB39F702E
:103C4000282F207F292B2BBBDB9ADB988295807F46
:103C5000982B9BBBDB9ADB9808958BBBDB9ADB9898
:103C600008950F931F93DF93CF930F92CDB7DEB7D5
:103C70008E010F5F1F4FD998DA9A0E940B1E89831D
:103C8000F80180818823BCF3DA988FEF8ABB0F900C
:103C9000CF91DF911F910F9108958FEF8ABB8ABB5F
:103CA000D998DA98DB98DB9ADD9ADB980E94311E6E
:103CB00088E20E941E1E0E94311ED9988EE00E944A
:103CC0001E1E0E94311ED99886E00E941E1E0E9470
:103CD000311E0895D99882E00E941E1E0E94311E56
:103CE0000895D9988295880F880F807C860F815C13
:103CF0000E941E1E0E94311E0895D99881E00E94E4
:103D00001E1E0E94311E0895D99A0E941E1E0E94F6
:103D1000311E08951F93CF93DF93EC018881882390
:103D200051F010E00E94841E1F5FFE01E10FF11DA3
:103D300080818823B9F7DF91CF911F910895823058
:103D400061F0833018F4813069F405C0833039F0B4
:103D5000843041F406C0AF9A0895AE9A0895AD9AA2
:103D60000895AC9A0895823061F0833018F4813060
:103D700069F405C0833039F0843041F406C0AF984F
:103D80000895AE980895AD980895AC98089582303E
:103D900071F0833018F48130B1F405C0833059F0EC
:103DA000843089F40CC0AF9B0FC08FE00895AE99AA
:103DB0000DC080EF0895AD990BC080EF0895AC99C8
:103DC00009C080EF0895089580EF08958FE0089569
:103DD0008FE008958FE008950F931F93182F843676
:103DE00068F464E60E94842C9A30B0F0892F6AE06F
:103DF0000E94842C805D0E94841E0EC064E60E9496
:103E0000842C092F805D0E94841E802F6AE00E940E
:103E1000842C805D0E94841E812F64E60E94842C85
:103E2000892F6AE00E94842C892F805D0E94841E65
:103E30001F910F9108950F931F93DF93CF9300D09D
:103E400000D0CDB7DEB769837A838B839C83423001
:103E500049F0433061F0413071F48CE690E00E940B
:103E60008A1E09C080E790E00E948A1E04C084E791
:103E700090E00E948A1E8E010F5F1F4FF801838120
:103E8000882329F488E790E00E948A1E16C00E94C9
:103E9000EC1E8EE20E94841EF80182810E94EC1EBC
:103EA0008EE20E94841EF80181810E94EC1E8EE247
:103EB0000E94841E89810E94EC1E0F900F900F902B
:103EC0000F90CF91DF911F910F91089581E061E0F4
:103ED0000E94711E6091D9057091DA058091DB0511
:103EE0009091DC0541E00E941B1F82E061E00E948E
:103EF000711E6091DD057091DE058091DF05909166
:103F0000E00542E00E941B1F08956F927F928F92FE
:103F10009F92AF92BF92CF92DF92EF92FF920F9358
:103F20001F935B016C0139014A010E94E6140E9453
:103F3000DF09C601B501A40193010E94711B1F9105
:103F40000F91FF90EF90DF90CF90BF90AF909F9038
:103F50008F907F906F900895CF93DF9300D081E68C
:103F600093E1EDB7FEB7928381830E94DE2A0F9022
:103F70000F90C5EED5E0CE010E94B91B00D08EE5B2
:103F800093E1EDB7FEB7928381830E94DE2A80E53C
:103F900093E1EDB7FEB7928381830E94DE2A0F90F2
:103FA0000F902C97688179818A819B810E94F51BF3
:103FB00000D08DE493E1EDB7FEB7928381830E9438
:103FC000DE2A8FE393E1EDB7FEB7928381830E94EF
:103FD000DE2A0F900F906C817D818E819F810E94DF
:103FE000F51B00D08CE393E1EDB7FEB7928381839C
:103FF0000E94DE2A8AE293E1EDB7FEB792838183C5
:104000000E94DE2A0F900F90688579858A859B85AE
:104010000E94F51B00D087E293E1EDB7FEB79283D3
:1040200081830E94DE2A0F900F90DF91CF91089537
:104030000E944D1E0E947D1E8FEF84BB85BB17BA68
:1040400088BB11BA82BB0E94B12960E875E280E0AA
:1040500090E00E94122A0895EF92FF920F931F930F
:10406000CF93DF9300D08AEF92E1EDB7FEB7928352
:1040700081830E94DE2A8FEC92E1EDB7FEB7928336
:1040800081830E94DE2A8AEB92E1EDB7FEB792832C
:1040900081830E94DE2A80E38093E50586E4809395
:1040A000E6058093E70589E48093E80583E480933F
:1040B000E90585E48093EA05C9EDD5E01882198207
:1040C0001A821B821C821D821E821F8218861986FC
:1040D0001A861B860F900F9060E070E0CB0120E005
:1040E00030E0A901EE24FF2487010E94851F0E9471
:1040F000AC1F00D081EA92E1EDB7FEB792838183D5
:104100000E94DE2A0F900F9088819981AA81BB813D
:104110000097A105B10511F40E94B30C80E590E071
:1041200066EE78E10E94EB20DF91CF911F910F9115
:10413000FF90EF900895AF98AD9808950E941820D1
:104140000E942C200E949B200E9478150E94201320
:10415000FBCF62ED74E080E090E0089590E02FE105
:1041600030E0829FF001839FF00D929FF00D1124AB
:10417000E551FA4F108A08951F9310E0812F0E9495
:10418000AE201F5F1830D1F71F9108951F939091B3
:10419000FB059923E1F0AAE1B6E0FD0111E0808181
:1041A0008823B1F01F5F7F961830C9F7983029F047
:1041B00011E08C91883031F401C010E0812F0E9411
:1041C000AE2006C01F5F5F96183099F701C010E05F
:1041D000812F1F9108950F931F93CF93DF93EC01CD
:1041E0008B010E94C620883008F080E090E02FE12B
:1041F00030E0829FF001839FF00D929FF00D11241B
:10420000E551FA4FD383C28382E0808B80E090E255
:10421000928B818B948B838B8CE3828F148F038F93
:10422000DF91CF911F910F9108951F93CF93DF934B
:10423000CBEFD5E010E08881882361F0823051F027
:104240008A85882321F081508A87882319F4812F59
:104250000E94AE201F5F6F96183069F7DF91CF91F3
:104260001F910895EF92FF920F931F93CF93DF93C7
:104270007C018B0162307105F0F0EC01988189813D
:104280002296F92FE0E0DF01A80FB11DCD01A0E0DB
:10429000B0E0280F391F4A1F5B1F62507040623028
:1042A000710560F702501040C8018E7F0296E80E3B
:1042B000F91E017010700115110549F0F701908188
:1042C00080E0A0E0B0E0280F391F4A1F5B1FCA0141
:1042D000AA27BB270097A105B10569F0407050706F
:1042E000280F391F4A1F5B1FCA01AA27BB27009747
:1042F000A105B10599F720953095822F932FDF9175
:10430000CF911F910F91FF90EF9008952F923F92C0
:104310004F925F926F927F928F929F92AF92BF92D5
:10432000CF92DF92EF92FF920F931F93DF93CF9381
:1043300000D000D0CDB7DEB75C01262E6A01F901AE
:1043400070E066247724689461F86622772261FF22
:104350000DC082E0808384E0818383E0828398EED5
:10436000938391E09483858386831782CF0144975A
:104370009C838B83D50112968D919C9113979827DE
:1043800089279827EB81FC81918380838D919C9173
:1043900011979827892798279383828318968D9160
:1043A0009D910D90BC91A02DEB2EFF24002711278D
:1043B000582F442733272227E22AF32A042B152BD0
:1043C0009C01AD01207030705070232F342F452F89
:1043D00055272E293F29402B512B8070A070B0709B
:1043E000EE24F82E092F1A2F2E293F29402B512B6E
:1043F0002483358346835783960140E050E0F501DE
:1044000080859185A285B385820F931FA41FB51F58
:1044100080879187A287B38763707070611571057B
:1044200039F00196A11DB11D80879187A287B387BE
:10443000F50184859585A685B785EB2EFF24002799
:104440001127582F442733272227E22AF32A042B47
:10445000152B9C01AD01207030705070232F342F2C
:10446000452F55272E293F29402B512B8070A070B6
:10447000B070EE24F82E092F1A2F2E293F29402B39
:10448000512BAB81BC8118962D933D934D935C933A
:104490001B976114710449F080E71C968C931C975C
:1044A000F6017C96FA83E98309C080E5AB81BC8183
:1044B0001C968C93F6017496FA83E983AB81BC81D8
:1044C0001D962C921D97F50181899289982789273D
:1044D00098271F969C938E931E9751961C921E921E
:1044E000509753961C921E9252978D010451104082
:1044F0000E94B61BDC012D903D904D905C90522C9B
:104500004424332422240E94B61BFC018081918123
:10451000A281B38180709070B070692E7A2E8B2E3C
:1045200099240E94B61BFC0180819181A281B381F4
:104530008070A070B070CC24D82EE92EFA2E0E9484
:10454000B61BDC0113968C9190E0A0E0B0E08229CC
:104550009329A429B52986299729A829B9298C291D
:104560009D29AE29BF29F80184879587A687B7873B
:10457000F50184819581A681B781CB2EDD24EE24BF
:10458000FF24582F442733272227C22AD32AE42A7C
:10459000F52A9C01AD01207030705070232F342F0C
:1045A000452F55272C293D294E295F298070A07061
:1045B000B070CC24D82EE92EFA2E2C293D294E2974
:1045C0005F29D80150962D933D934D935C9353975B
:1045D00089819A819827892798271B969C938E9387
:1045E0001A9718961C92189786E019968C936981F1
:1045F0007A81645F7F4F8B819C810C9720E030E053
:10460000A9010E943221982789279827EB81FC81F4
:10461000918B808BD50114966D917D918D919C919C
:10462000179746E029813A818F010E948C1C0F90D8
:104630000F900F900F90CF91DF911F910F91FF90EE
:10464000EF90DF90CF90BF90AF909F908F907F9032
:104650006F905F904F903F902F9008952F923F92D0
:104660004F925F926F927F928F929F92AF92BF9282
:10467000CF92DF92EF92FF920F931F93CF93DF932E
:104680007C016C01DC010C910F70000F000FA02E5B
:10469000BB24EC01CA0DDB1D5C84FC01228033804D
:1046A000EBEEF5E010E08089882309F44BC08A81A5
:1046B0009B8198278927982742815381481759075A
:1046C00009F040C0888199819827892798274081DF
:1046D000518148175907B1F5D6011C964D915D914E
:1046E0006D917C911F97672E772488249924B42F8D
:1046F000AA2799278827682A792A8A2A9B2ADB01F0
:10470000CA0180709070B070892F9A2FAB2FBB2791
:10471000682A792A8A2A9B2A407060707070B62FA6
:10472000A52F942F8827B401A301482B592B6A2B5E
:104730007B2B64807580868097806416750686065C
:10474000970631F01F5F7F96183009F0ACCF03C099
:10475000183009F069C0EDEEF5E080E090E0182F28
:104760009C014685423009F055C04A815B81742F17
:10477000652F408151814617570709F04BC04FE123
:1047800050E0249FC001259F900D349F900D11246F
:10479000FC01E551FA4F888199819827892798274C
:1047A00091838083D7011C962D913D914D915C9111
:1047B0001F97652E772488249924B22FAA2799273A
:1047C0008827682A792A8A2A9B2ADA01C9018070F7
:1047D0009070B070892F9A2FAB2FBB27682A792A47
:1047E0008A2A9B2ADA01C9018070A070B070BA2FA2
:1047F000A92F982F882786299729A829B929848342
:104800009583A683B783638D748D828193810E9483
:10481000EB2007C01F5F01967F968830910509F055
:104820009ECF183009F48AC5C12EDD242FE130E077
:10483000C29EC001C39E900DD29E900D1124855141
:104840009A4F2CE3FC01228F5D8552FF04C0812F1B
:104850000E94AE2073C5852D869586958C7390E059
:10486000A80EB91EAE0CBF1C722D632D800F911DBA
:10487000681B790B2FE130E0C29EC001C39E900DF2
:10488000D29E900D112485519A4FDC0150968C9147
:104890005097863009F485C4873080F4833009F45A
:1048A000ADC0843020F4823009F02AC514C08430B1
:1048B00009F4F6C0853009F023C5A1C3883009F496
:1048C00022C5883008F40EC5893009F4FAC28A304E
:1048D00009F016C59DC2523009F015C50F2EFFE133
:1048E0002F2E3324F02DC29CC001C39C900DD29C6E
:1048F000900D11240F2EFBEEEF2EF5E0FF2EF02D84
:10490000E80EF91E83E0F701808B0E94A9209B012D
:10491000AC01692E772488249924B62FAA279927D9
:104920008827682A792A8A2A9B2ADA01C901807095
:104930009070B070892F9A2FAB2FBB27682A792AE5
:104940008A2A9B2ADA01C9018070A070B070BA2F40
:10495000A92F982F882786299729A829B929F701EF
:1049600080879187A287B3872C813D814E815F81AB
:10497000652E772488249924B22FAA27992788277F
:10498000682A792A8A2A9B2ADA01C90180709070E4
:10499000B070892F9A2FAB2FBB27682A792A8A2AD1
:1049A0009B2ADA01C9018070A070B070BA2FA92FBC
:1049B000982F882786299729A829B9290196A11D0A
:1049C000B11D84879587A687B7878E859F85982791
:1049D00089279827948B838B212F30E0229DC0015B
:1049E000239D900D329D900D112485519A4F62E1C7
:1049F00040E050E095010E94862185C4503109F0C5
:104A000082C488859985AA85BB852FE130E0C29E46
:104A1000F001C39EF00DD29EF00D1124E551FA4F26
:104A2000EB2EFF2400271127582F44273327222756
:104A3000E22AF32A042B152B9C01AD012070307063
:104A40005070232F342F452F55272E293F29402BD7
:104A5000512B8070A070B070BA2FA92F982F882783
:104A6000282B392B4A2B5B2B80859185A285B3851A
:104A700082179307A407B50709F060C4F601EE0F8B
:104A8000FF1FE295F295F07FFE27E07FFE27EC19ED
:104A9000FD09E551FA4F84E0808B81E0818F33C4BA
:104AA00050FF63C00F2EFFE1EF2EFF24F02DCE9CB0
:104AB000F001CF9CF00DDE9CF00D1124E551FA4F72
:104AC0008AE0808B2C813D814E815F81652E772429
:104AD00088249924B22FAA2799278827682A792A17
:104AE0008A2A9B2ADA01C90180709070B070892FE0
:104AF0009A2FAB2FBB27682A792A8A2A9B2A2070F3
:104B000040705070B42FA32F922F882786299729A1
:104B1000A829B9290196A11DB11D9B0140E050E0D3
:104B2000820F931FA41FB51F84879587A687B78719
:104B3000812F90E08E9DE0018F9DD00D9E9DD00D28
:104B40001124C551DA4FCE0160E140E050E09501FB
:104B50000E948621CE0161E140E050E095010E9473
:104B60008621812F0E94AE20CEC354FF7EC0688470
:104B700079848A849B842FE130E0C29EC001C39E69
:104B8000900DD29E900D1124FC01E551FA4F292D74
:104B9000332744275527B62DAA2799278827282B5E
:104BA000392B4A2B5B2BD401C30180709070B070FD
:104BB000892F9A2FAB2FBB27282B392B4A2B5B2B06
:104BC000D401C3018070A070B070BA2FA92F982FA4
:104BD0008827822B932BA42BB52B858B968BA78BA9
:104BE000B08F288539854A855B85652E7724882492
:104BF0009924B22FAA2799278827682A792A8A2AEE
:104C00009B2ADA01C90180709070B070892F9A2FA9
:104C1000AB2FBB27682A792A8A2A9B2ADA01C90185
:104C20008070A070B070BA2FA92F982F8827A40188
:104C30009301282B392B4A2B5B2B80859185A285EC
:104C4000B38582179307A407B50779F08FE190E049
:104C5000C89EF001C99EF00DD89EF00D1124E551BB
:104C6000FA4F20873187428753872C813D814E81BF
:104C70005F81652E772488249924B22FAA2799274B
:104C80008827682A792A8A2A9B2ADA01C901807032
:104C90009070B070892F9A2FAB2FBB278629972948
:104CA000A829B9292070407050706624722E832E76
:104CB000942E682A792A8A2A9B2A2FE130E0C29E04
:104CC000C001C39E900DD29E900D112485519A4F24
:104CD000DC011C962D913D914D915C911F972615FD
:104CE00037054805590509F44AC06216730684065B
:104CF000950668F5DA01C90186199709A809B90965
:104D00003C014D01CB01A0E0B0E0681679068A06AF
:104D10009B0628F4A60CB71C6619770930C0812FB2
:104D200090E09C01220F331F22953295307F32276D
:104D3000207F3227D901A81BB90BCD0185519A4F8D
:104D400060E140E050E095010E948621F7C2812F8A
:104D500090E09C01220F331F22953295307F32273D
:104D6000207F3227F901E81BF90BCF0185519A4FBB
:104D700060E140E050E095010E948621DFC2C7015A
:104D8000825E9B4FEC01A816B90608F4E501FE010E
:104D9000E60FF71F8E179F0718F4BC016C1B7D0BE5
:104DA0008FE190E0C89EF001C99EF00DD89EF00DF5
:104DB0001124E551FA4FCB01A0E0B0E0820F931F20
:104DC000A41FB51F84879587A687B78781E0818F49
:104DD0006115710509F497C28FE190E0C89EF0015A
:104DE000C99EF00DD89EF00D1124E551FA4F212FE8
:104DF00030E0289FA001299F500D389F500D1124AD
:104E000045515A4F038CF48DE02DCE0109957BC29C
:104E10008C819D81AE81BF812FE130E0C29EF00187
:104E2000C39EF00DD29EF00D1124E551FA4F20845F
:104E30003184428453840894211C311C411C511C30
:104E40006B2E772488249924582F44273327222730
:104E5000622A732A842A952A9C01AD012070307041
:104E60005070232F342F452F5527262937294829BD
:104E700059298070A070B070BA2FA92F982F882759
:104E8000282B392B4A2B5B2B22163306440655065A
:104E900021F4812F0E94AE2036C2412F50E02FE135
:104EA00030E0429FC001439F900D529F900D11240E
:104EB00085519A4F61E140E050E095010E948621C2
:104EC00022C28FE190E0C89EF001C99EF00DD89EED
:104ED000F00D1124E551FA4F8AE0808B61157105C0
:104EE00009F43FC08C819D81AE81BF812FE130E00C
:104EF000C29EF001C39EF00DD29EF00D1124E5512B
:104F0000FA4F1B01442455246B2E772488249924BE
:104F1000582F442733272227622A732A842A952A66
:104F20009C01AD01207030705070232F342F452F1D
:104F3000552726293729482959298070A070B07033
:104F4000BA2FA92F982F8827282B392B4A2B5B2B78
:104F5000220D331D441D551D2487358746875787ED
:104F60003AC08C819D81AE81BF812FE130E0C29E2D
:104F7000F001C39EF00DD29EF00D1124E551FA4FC1
:104F80006B2E772488249924582F442733272227EF
:104F9000622A732A842A952A9C01AD012070307000
:104FA0005070232F342F452F55272629372948297C
:104FB00059298070A070B070BA2FA92F982F882718
:104FC000822B932BA42BB52B0196A11DB11D848799
:104FD0009587A687B787412F50E02FE130E0429FA9
:104FE000C001439F900D529F900D112485519A4FFF
:104FF00061E140E050E095010E94862184C18C81EE
:105000009D81AE81BF812FE130E0C29EF001C39E41
:10501000F00DD29EF00D1124E551FA4F6B2E77243E
:1050200088249924582F442733272227622A732A59
:10503000842A952A9C01AD01207030705070232F76
:10504000342F452F5527262937294829592980707B
:10505000A070B070BA2FA92F982F8827282B392B32
:105060004A2B5B2B2F5F3F4F4F4F5F4F2487358776
:10507000468757878D858130F9F42FE130E0C29E55
:10508000F001C39EF00DD29EF00D1124E551FA4FB0
:1050900087E0808B412F50E0429FC001439F900DDD
:1050A000529F900D112485519A4F60E140E050E0ED
:1050B00095010E94862127C1813109F061C0888550
:1050C0009985AA85BB856B2E772488249924582F2F
:1050D000442733272227622A732A842A952A9C018F
:1050E000AD01207030705070232F342F452F55277D
:1050F00026293729482959298070A070B070BA2F05
:10510000A92F982F8827282B392B4A2B5B2B8FE12F
:1051100090E0C89EF001C99EF00DD89EF00D1124BC
:10512000E551FA4F80859185A285B3852817390707
:105130004A075B0721F4812F0E94AE200DC08FE14A
:1051400090E0C89EF001C99EF00DD89EF00D11248C
:10515000E551FA4F8AE0808B412F50E02FE130E09B
:10516000429FC001439F900D529F900D1124855185
:105170009A4F60E140E050E095010E948621C3C053
:10518000803109F0C0C08FE190E0C89EF001C99E57
:10519000F00DD89EF00D1124E551FA4F86E0808B7A
:1051A000CDC050FFB0C06115710509F43FC08C81BE
:1051B0009D81AE81BF812FE130E0C29EF001C39E90
:1051C000F00DD29EF00D1124E551FA4F1B0144243D
:1051D00055246B2E772488249924582F442733276D
:1051E0002227622A732A842A952A9C01AD01207005
:1051F00030705070232F342F452F552726293729FB
:10520000482959298070A070B070BA2FA92F982F03
:105210008827822B932BA42BB52B820D931DA41DC5
:10522000B51D84879587A687B7873AC08C819D81F5
:10523000AE81BF812FE130E0C29EF001C39EF00D30
:10524000D29EF00D1124E551FA4F6B2E772488245D
:105250009924582F442733272227622A732A842A25
:10526000952A9C01AD01207030705070232F342F8F
:10527000452F552726293729482959298070A0709C
:10528000B070BA2FA92F982F8827822B932BA42B8D
:10529000B52B0196A11DB11D84879587A687B78779
:1052A0002FE130E0C29EF001C39EF00DD29EF00DC2
:1052B0001124E551FA4F88E0808B412F50E0429F46
:1052C000C001439F900D529F900D112485519A4F1C
:1052D00060E140E050E095010E948621812F0E940C
:1052E000AE2011C08FE190E0C89EF001C99EF00D84
:1052F000D89EF00D1124E551FA4F88E0808B11C043
:10530000812F0E94AE208FE190E0C89EF001C99EDF
:10531000F00DD89EF00D1124E551FA4F80898830A8
:1053200069F48FE190E0C89EF001C99EF00DD89E0F
:10533000F00D1124E551FA4F85E0828FDF91CF9176
:105340001F910F91FF90EF90DF90CF90BF90AF90A3
:105350009F908F907F906F905F904F903F902F9095
:1053600008958EB5887F85608EBD1DBC1CBC89B735
:10537000846089BF8BE791EE9DBD8CBD78940895C4
:105380001F920F920FB60F9211242F933F934F93BA
:105390005F936F937F938F939F93AF93BF93EF939D
:1053A000FF938BE791EE9DBD8CBD8091FD009091A8
:1053B000FE009C012F5F3F4F3093FE002093FD00C5
:1053C0008937910530F01092FE001092FD000E9486
:1053D000E614809181009091820001969093820062
:1053E000809381000E94A50C0E9415210E94011348
:1053F0008091E3068F5F8093E306853010F00E9472
:10540000661FFF91EF91BF91AF919F918F917F9117
:105410006F915F914F913F912F910F900FBE0F9021
:105420001F9018959B01AC01605C7D4B804F9F4F96
:10543000660F771F881F991F660F771F881F991F98
:10544000660F771F881F991F220F331F441F551F98
:10545000220F331F441F551F220F331F441F551F98
:10546000220F331F441F551F0E94A42C215030408F
:1054700029B9832F8F7080BD86E880BD88ED8AB9F9
:105480001092F5061092F6061092F4061092F706A6
:10549000789408951F920F920FB60F9211248F9354
:1054A0009F93EF93FF938091F6068823B1F080914C
:1054B000F60681508093F6068091F506ECEEF6E054
:1054C000E80FF11D90819CB98F5F8093F506809164
:1054D000F506883011F41092F506FF91EF919F9137
:1054E0008F910F900FBE0F901F9018951F920F92E3
:1054F0000FB60F9211248F939F93EF93FF938BB16D
:105500009CB18C71B9F48091F7068F5F8093F70698
:105510008091F706883011F48093F7068091F406A5
:10552000E091F706E80FE93008F0E850F0E0ED51BF
:10553000F94F9083FF91EF919F918F910F900FBE44
:105540000F901F9018958091F7068823B1F08091F5
:10555000F70681508093F7069091F406E4EEF6E0AA
:10556000E90FF11D80819F5F9093F4069091F406FE
:10557000983021F41092F40608958FEF08955D9B02
:1055800006C09091F606992311F48CB90895909174
:10559000F6069830E1F39091F5062091F606920F09
:1055A0002091F6062F5F2093F606983008F0985069
:1055B000ECEEF6E0E90FF11D808308952F923F9203
:1055C0004F925F926F927F929F92AF92BF92CF92D3
:1055D000DF92EF92FF920F931F93DF93CF93CDB79C
:1055E000DEB70F2EF4E16F2E7724F02D6C0E7D1EAA
:1055F000F301E190F1903F010F2EFAE04F2E552478
:10560000F02D22243324689424F818C08823A1F4B0
:1056100080E090E0CF91DF911F910F91FF90EF908C
:10562000DF90CF90BF90AF909F907F906F905F90F2
:105630004F903F902F9008950E94BF2AF701089441
:10564000E11CF11C8491853209F7F7010894E11CF3
:10565000F11CE491E43681F0E83709F455C0E336F3
:1056600039F4F30182E090E0680E791E808101C078
:105670008E2F0E94BF2AE2CFF30182E090E0680EF5
:10568000791EC080D180DD203CF4D094C194D10833
:10569000D3948DE20E94BF2A90E1C91697E2D90601
:1056A00088F400E117E2C801B2010E94902C8B013E
:1056B0006230710568F0C616D706A8F3C201A42CA3
:1056C000992E09C0C201A42C992E00E117E203C053
:1056D000C201A42C992EC601B8010E94902CD82E8C
:1056E000B92E61597C4EFB0184910E94BF2A8D2DF9
:1056F0009B2D6C01C8016A2D792D0E94902C8B0185
:105700006115710541F79ACFF301C080D18082E025
:1057100090E0680E791EC101A22C992E00E010E1E4
:10572000DACF6F927F928F929F92AF92BF92CF9279
:10573000DF92EF92FF920F931F93CF93DF935B0162
:105740006C01F7013897B801685F7F4F54274527F0
:1057500054275383428332272327322731832083E0
:10576000362F272F3583248317821682E7016C9703
:105770000F2EF6ED8F2EFFEF9F2EF02D8E0C9F1C1F
:105780000F2EFCE16F2E7724F02D600E711E2D2D53
:10579000332744275527BA2DAA2799278827822BF4
:1057A000932BA42BB52BB601A501407050707070DF
:1057B000452F562F672F77279A01AB01282B392BBE
:1057C0004A2B5B2BD601C5018070A070B070BA2F38
:1057D000A92F982F8827822B932BA42BB52B888B4E
:1057E000998BAA8BBB8B8091D9059091DA05A091FA
:1057F000DB05B091DC05EB2EFF2400271127582F85
:10580000442733272227E22AF32A042B152B9C0155
:10581000AD01207030705070232F342F452F552745
:105820002E293F29402B512B8070A070B070EE24A0
:10583000F82E092F1A2F2E293F29402B512B2C8768
:105840003D874E875F8781E18987962D872D9B83D2
:105850008A8385E4888319821D821C821F821E82AE
:1058600080E888871B861A86CE0164E170E00E947A
:105870002D1B9B878A878091D9059091DA05A0918D
:10588000DB05B091DC05A826B926CA26DB26809167
:10589000DD059091DE05A091DF05B091E005A8221D
:1058A000B922CA22DB22A114B104C104D10439F403
:1058B000C40140E050E0BA010E94270C0BC04091A7
:1058C000E1055091E2056091E3057091E405C401A2
:1058D0000E94270CC3010E96B4010E94EC14DF91C4
:1058E000CF911F910F91FF90EF90DF90CF90BF90DD
:1058F000AF909F908F907F906F900895645E7F4FE0
:105900004C970E94EE0F0895991B79E004C0991FEF
:10591000961708F0961B881F7A95C9F78095089509
:10592000AA1BBB1B51E107C0AA1FBB1FA617B707C5
:1059300010F0A61BB70B881F991F5A95A9F78095E1
:105940009095BC01CD010895A1E21A2EAA1BBB1BA4
:10595000FD010DC0AA1FBB1FEE1FFF1FA217B3073B
:10596000E407F50720F0A21BB30BE40BF50B661F51
:10597000771F881F991F1A9469F760957095809515
:1059800090959B01AC01BD01CF010895F894FFCF24
:1059900061646D696E3A31323334000049503A0027
:1059A000534E3A0047573A00302E302E302E3000FA
:00000001FF
