:100000000C9446000C945D000C945D000C945D0013
:100010000C945D000C945D000C945D000C945D00EC
:100020000C945D000C945D000C945D000C945D00DC
:100030000C945D000C945D000C945D000C945D00CC
:100040000C945D000C945D000C945D000C945D00BC
:100050000C945D000C945D000C945D000C945D00AC
:100060000C945D000C945D000C945D000C945D009C
:100070000C945D000C945D000C945D000C945D008C
:100080000C945D000C945D000C945D0011241FBE67
:10009000CFEFD0E1DEBFCDBF11E0A0E0B1E0E6E7F9
:1000A000F3E000E00BBF02C007900D92A232B1074F
:1000B000D9F70E9404010C94B9010C9400008BB391
:1000C000806F8BBB8AB38F708ABBDB9ADB9A89B354
:1000D000DB98DB9ADB9A99B3DB9892959F70807FCF
:1000E000892B08959BB39F70282F207F292B2BBB32
:1000F000DB9ADB988295807F982B9BBBDB9ADB9801
:1001000008958BBBDB9ADB9808950F931F93DF93C1
:10011000CF930F92CDB7DEB78E010F5F1F4FD998E7
:10012000DA9A0E945F008983F80180818823BCF3FA
:10013000DA988FEF8ABB0F90CF91DF911F910F91CB
:1001400008958FEF8ABB8ABBD998DA98DB98DB9A3F
:10015000DD9ADB980E94850088E20E9472000E946E
:100160008500D9988EE00E9472000E948500D9987F
:1001700086E00E9472000E9485000895D99882E06E
:100180000E9472000E94850008958130A0F08330A3
:1001900018F0853080F408C0982F9295990F990F28
:1001A000907C960F915C07C0982F9295990F990FAC
:1001B000907C960F9D52D998892F0E9472000E94C0
:1001C00085000895D99881E00E9472000E94850000
:1001D0000895D99A0E9472000E94850008951F9385
:1001E000CF93DF93EC018881882351F010E00E94C7
:1001F000E9001F5FFE01E10FF11D80818823B9F73F
:10020000DF91CF911F9108958FEF84BB8FE085BB65
:100210000E94A1000E94E20081E061E00E94C5000E
:1002200080E091E00E94EF0082E061E00E94C50062
:1002300080E191E00E94EF0083E061E00E94C50050
:100240008FEFA89A2FE33DE043E02150304040403B
:10025000E1F700C00000A8982FE33DE043E0215003
:1002600030404040E1F700C00000A99A2FE33DE094
:1002700043E0215030404040E1F700C00000A99821
:100280002FE33DE043E0215030404040E1F700C023
:100290000000AA9A2FE33DE043E021503040404067
:1002A000E1F700C00000AA982FE33DE043E02150B1
:1002B00030404040E1F700C00000AB9A2FE33DE042
:1002C00043E0215030404040E1F700C00000AB98CF
:1002D00085BB2FE33DE043E0215030404040E1F753
:1002E00000C0000015BA2FE33DE043E0215030404C
:1002F0004040E1F700C0000085BB2FE33DE043E054
:10030000215030404040E1F700C0000015BA2FE313
:100310003DE043E0215030404040E1F700C00000A4
:1003200085BB2FE33DE043E0215030404040E1F702
:1003300000C0000015BA85BB2FE33DE043E021502B
:1003400030404040E1F700C0000015BA2FE33DE027
:1003500043E0215030404040E1F700C000002FE36F
:100360003DE043E0215030404040E1F700C0000054
:0603700068CFF894FFCFF6
:1003760044656D6F206F6620746865204C434400A9
:1003860032783136204C434420446973706C61796D
:02039600000065
:00000001FF
