:100000000C9461000C9473000C9473000C947300B6
:100010000C9473000C9473000C9473000C94730094
:100020000C9473000C9473000C9473000C94730084
:100030000C9473000C9473000C9473000C94730074
:100040000C9473000C9473000C9415010C947300C1
:100050000C94E5000C9473000C9473000C947300E2
:100060000C9473000C9473000C9473000C94730044
:100070000C9473000C9473000C9473000C94730034
:100080000C9473000C9473000C9473004C616D20FD
:100090004E676F6320436869656E004574686572DA
:1000A0006E6574206368697020696E69740D0A005A
:1000B000303132333435363738394142434445469E
:1000C000000011241FBECFEFD0E1DEBFCDBF11E095
:1000D000A0E0B1E001C01D92A431B107E1F70E9498
:1000E00075000C946A020C940000CF93DF938FEF9D
:1000F00084BB85BB60E875E280E090E00E94AD00C3
:1001000000D08BE990E0ADB7BEB712969C938E936A
:1001100011970E9481010F900F90CCE8D0E000D0A1
:10012000EDB7FEB7D283C1830E948101A89A8FE701
:100130009AE1A6E081509040A040E1F700C00000A5
:10014000A8988FE79AE1A6E081509040A040E1F79F
:1001500000C000000F900F90E2CF9B01AC01605CEB
:100160007D4B804F9F4F660F771F881F991F660F2B
:10017000771F881F991F660F771F881F991F220FEF
:10018000331F441F551F220F331F441F551F220FBB
:10019000331F441F551F220F331F441F551F0E943A
:1001A00048022150304029B93093900086E0809376
:1001B000950088ED8AB910921101109212011092E7
:1001C000100110921301789408951F920F920FB6A8
:1001D0000F920BB60F9211248F939F93EF93FF937F
:1001E000809112018823B1F0809112018150809397
:1001F000120180911101E8E0F1E0E80FF11D90811A
:100200009CB98F5F8093110180911101883011F4A6
:1002100010921101FF91EF919F918F910F900BBE62
:100220000F900FBE0F901F9018951F920F920FB650
:100230000F920BB60F9211248F939F93EF93FF931E
:100240008BB19CB18C71B9F4809113018F5F809355
:10025000130180911301883011F480931301809170
:100260001001E0911301E80FE93008F0E850F0E0E8
:10027000E150FF4F9083FF91EF919F918F910F90ED
:100280000BBE0F900FBE0F901F9018958091130119
:100290008823B1F0809113018150809313019091D4
:1002A0001001E0E0F1E0E90FF11D80819F5F909384
:1002B000100190911001983021F4109210010895CE
:1002C0008FEF08955D9B06C090911201992311F460
:1002D0008CB90895909112019830E1F39091110139
:1002E00020911201920F209112012F5F2093120191
:1002F000983008F09850E8E0F1E0E90FF11D8083B4
:1003000008952F923F924F925F926F927F929F92A9
:10031000AF92BF92CF92DF92EF92FF920F931F9313
:10032000DF93CF93CDB7DEB70F2EF4E16F2E772496
:10033000F02D6C0E7D1EF301E190F1903F010F2E28
:10034000FAE04F2E5524F02D22243324689424F80B
:1003500018C08823A1F480E090E0CF91DF911F9135
:100360000F91FF90EF90DF90CF90BF90AF909F9054
:100370007F906F905F904F903F902F9008950E94D4
:100380006201F7010894E11CF11C8491853209F7A0
:10039000F7010894E11CF11CE491E43681F0E837A0
:1003A00009F455C0E33639F4F30182E090E0680EB9
:1003B000791E808101C08E2F0E946201E2CFF3017D
:1003C00082E090E0680E791EC080D180DD203CF490
:1003D000D094C194D108D3948DE20E94620190E13F
:1003E000C91697E2D90688F400E117E2C801B20104
:1003F0000E9434028B016230710568F0C616D70680
:10040000A8F3C201A42C992E09C0C201A42C992ED4
:1004100000E117E203C0C201A42C992EC601B80165
:100420000E943402D82EB92E60557F4FFB01849173
:100430000E9462018D2D9B2D6C01C8016A2D792DC2
:100440000E9434028B016115710541F79ACFF301C7
:10045000C080D18082E090E0680E791EC101A22C9C
:10046000992E00E010E1DACFAA1BBB1B51E107C0B7
:10047000AA1FBB1FA617B70710F0A61BB70B881F34
:10048000991F5A95A9F780959095BC01CD010895C3
:10049000A1E21A2EAA1BBB1BFD010DC0AA1FBB1F88
:1004A000EE1FFF1FA217B307E407F50720F0A21BFA
:1004B000B30BE40BF50B661F771F881F991F1A9467
:1004C00069F760957095809590959B01AC01BD0191
:0804D000CF010895F894FFCF5D
:00000001FF
